{
  "_format": "hh-sol-artifact-1",
  "contractName": "WETH9",
  "sourceName": "contracts/WETH.sol",
  "abi": [
    {
      "inputs": [],
      "payable": false,
      "stateMutability": "nonpayable",
      "type": "constructor"
    },
    {
      "anonymous": false,
      "inputs": [
        {
          "indexed": true,
          "internalType": "address",
          "name": "src",
          "type": "address"
        },
        {
          "indexed": true,
          "internalType": "address",
          "name": "guy",
          "type": "address"
        },
        {
          "indexed": false,
          "internalType": "uint256",
          "name": "wad",
          "type": "uint256"
        }
      ],
      "name": "Approval",
      "type": "event"
    },
    {
      "anonymous": false,
      "inputs": [
        {
          "indexed": true,
          "internalType": "address",
          "name": "dst",
          "type": "address"
        },
        {
          "indexed": false,
          "internalType": "uint256",
          "name": "wad",
          "type": "uint256"
        }
      ],
      "name": "Deposit",
      "type": "event"
    },
    {
      "anonymous": false,
      "inputs": [
        {
          "indexed": true,
          "internalType": "address",
          "name": "src",
          "type": "address"
        },
        {
          "indexed": true,
          "internalType": "address",
          "name": "dst",
          "type": "address"
        },
        {
          "indexed": false,
          "internalType": "uint256",
          "name": "wad",
          "type": "uint256"
        }
      ],
      "name": "Transfer",
      "type": "event"
    },
    {
      "anonymous": false,
      "inputs": [
        {
          "indexed": true,
          "internalType": "address",
          "name": "src",
          "type": "address"
        },
        {
          "indexed": false,
          "internalType": "uint256",
          "name": "wad",
          "type": "uint256"
        }
      ],
      "name": "Withdrawal",
      "type": "event"
    },
    {
      "constant": true,
      "inputs": [],
      "name": "DOMAIN_SEPARATOR",
      "outputs": [
        {
          "internalType": "bytes32",
          "name": "",
          "type": "bytes32"
        }
      ],
      "payable": false,
      "stateMutability": "view",
      "type": "function"
    },
    {
      "constant": false,
      "inputs": [
        {
          "internalType": "address",
          "name": "owner",
          "type": "address"
        },
        {
          "internalType": "address",
          "name": "spender",
          "type": "address"
        },
        {
          "internalType": "uint256",
          "name": "value",
          "type": "uint256"
        }
      ],
      "name": "_approve",
      "outputs": [],
      "payable": false,
      "stateMutability": "nonpayable",
      "type": "function"
    },
    {
      "constant": true,
      "inputs": [
        {
          "internalType": "address",
          "name": "",
          "type": "address"
        },
        {
          "internalType": "address",
          "name": "",
          "type": "address"
        }
      ],
      "name": "allowance",
      "outputs": [
        {
          "internalType": "uint256",
          "name": "",
          "type": "uint256"
        }
      ],
      "payable": false,
      "stateMutability": "view",
      "type": "function"
    },
    {
      "constant": false,
      "inputs": [
        {
          "internalType": "address",
          "name": "guy",
          "type": "address"
        },
        {
          "internalType": "uint256",
          "name": "wad",
          "type": "uint256"
        }
      ],
      "name": "approve",
      "outputs": [
        {
          "internalType": "bool",
          "name": "",
          "type": "bool"
        }
      ],
      "payable": false,
      "stateMutability": "nonpayable",
      "type": "function"
    },
    {
      "constant": true,
      "inputs": [
        {
          "internalType": "address",
          "name": "",
          "type": "address"
        }
      ],
      "name": "balanceOf",
      "outputs": [
        {
          "internalType": "uint256",
          "name": "",
          "type": "uint256"
        }
      ],
      "payable": false,
      "stateMutability": "view",
      "type": "function"
    },
    {
      "constant": true,
      "inputs": [],
      "name": "decimals",
      "outputs": [
        {
          "internalType": "uint8",
          "name": "",
          "type": "uint8"
        }
      ],
      "payable": false,
      "stateMutability": "view",
      "type": "function"
    },
    {
      "constant": false,
      "inputs": [],
      "name": "deposit",
      "outputs": [],
      "payable": true,
      "stateMutability": "payable",
      "type": "function"
    },
    {
      "constant": true,
      "inputs": [],
      "name": "name",
      "outputs": [
        {
          "internalType": "string",
          "name": "",
          "type": "string"
        }
      ],
      "payable": false,
      "stateMutability": "view",
      "type": "function"
    },
    {
      "constant": true,
      "inputs": [
        {
          "internalType": "address",
          "name": "",
          "type": "address"
        }
      ],
      "name": "nonces",
      "outputs": [
        {
          "internalType": "uint256",
          "name": "",
          "type": "uint256"
        }
      ],
      "payable": false,
      "stateMutability": "view",
      "type": "function"
    },
    {
      "constant": false,
      "inputs": [
        {
          "internalType": "address",
          "name": "owner",
          "type": "address"
        },
        {
          "internalType": "address",
          "name": "spender",
          "type": "address"
        },
        {
          "internalType": "uint256",
          "name": "value",
          "type": "uint256"
        },
        {
          "internalType": "uint256",
          "name": "deadline",
          "type": "uint256"
        },
        {
          "internalType": "uint8",
          "name": "v",
          "type": "uint8"
        },
        {
          "internalType": "bytes32",
          "name": "r",
          "type": "bytes32"
        },
        {
          "internalType": "bytes32",
          "name": "s",
          "type": "bytes32"
        }
      ],
      "name": "permit",
      "outputs": [],
      "payable": false,
      "stateMutability": "nonpayable",
      "type": "function"
    },
    {
      "constant": true,
      "inputs": [],
      "name": "symbol",
      "outputs": [
        {
          "internalType": "string",
          "name": "",
          "type": "string"
        }
      ],
      "payable": false,
      "stateMutability": "view",
      "type": "function"
    },
    {
      "constant": true,
      "inputs": [],
      "name": "totalSupply",
      "outputs": [
        {
          "internalType": "uint256",
          "name": "",
          "type": "uint256"
        }
      ],
      "payable": false,
      "stateMutability": "view",
      "type": "function"
    },
    {
      "constant": false,
      "inputs": [
        {
          "internalType": "address",
          "name": "dst",
          "type": "address"
        },
        {
          "internalType": "uint256",
          "name": "wad",
          "type": "uint256"
        }
      ],
      "name": "transfer",
      "outputs": [
        {
          "internalType": "bool",
          "name": "",
          "type": "bool"
        }
      ],
      "payable": false,
      "stateMutability": "nonpayable",
      "type": "function"
    },
    {
      "constant": false,
      "inputs": [
        {
          "internalType": "address",
          "name": "src",
          "type": "address"
        },
        {
          "internalType": "address",
          "name": "dst",
          "type": "address"
        },
        {
          "internalType": "uint256",
          "name": "wad",
          "type": "uint256"
        }
      ],
      "name": "transferFrom",
      "outputs": [
        {
          "internalType": "bool",
          "name": "",
          "type": "bool"
        }
      ],
      "payable": false,
      "stateMutability": "nonpayable",
      "type": "function"
    },
    {
      "constant": false,
      "inputs": [
        {
          "internalType": "uint256",
          "name": "wad",
          "type": "uint256"
        }
      ],
      "name": "withdraw",
      "outputs": [],
      "payable": false,
      "stateMutability": "nonpayable",
      "type": "function"
    }
  ],
  "bytecode": "0x60c0604052600d60808190526c2bb930b83832b21022ba3432b960991b60a090815261002e916000919061014a565b50604080518082019091526004808252630ae8aa8960e31b602090920191825261005a9160019161014a565b506002805460ff1916601217905534801561007457600080fd5b50604051600090806052610d048239604080519182900360520182208282018252600b83526a4f6666657253797374656d60a81b6020938401528151808301835260018152603160f81b908401528151808401919091527f636b80cd0def054c5cde88e1640cd30f13a9da784589b92111f8c13d15bdfc12818301527fc89efdaa54c0f20c7adf612882df0950f5a951637e0307cdcb4c672f298b8bc6606082015260808101949094523060a0808601919091528151808603909101815260c090940190528251920191909120600555506101e5565b828054600181600116156101000203166002900490600052602060002090601f016020900481019282601f1061018b57805160ff19168380011785556101b8565b828001600101855582156101b8579182015b828111156101b857825182559160200191906001019061019d565b506101c49291506101c8565b5090565b6101e291905b808211156101c457600081556001016101ce565b90565b610b10806101f46000396000f3fe6080604052600436106100e85760003560e01c80633644e5151161008a578063a9059cbb11610059578063a9059cbb14610358578063d0e30db014610391578063d505accf14610399578063dd62ed3e146103f7576100e8565b80633644e515146102c857806370a08231146102dd5780637ecebe001461031057806395d89b4114610343576100e8565b806318160ddd116100c657806318160ddd1461020957806323b872dd146102305780632e1a7d4d14610273578063313ce5671461029d576100e8565b806306fdde03146100ed578063095ea7b314610177578063104e81ff146101c4575b600080fd5b3480156100f957600080fd5b50610102610432565b6040805160208082528351818301528351919283929083019185019080838360005b8381101561013c578181015183820152602001610124565b50505050905090810190601f1680156101695780820380516001836020036101000a031916815260200191505b509250505060405180910390f35b34801561018357600080fd5b506101b06004803603604081101561019a57600080fd5b506001600160a01b0381351690602001356104c0565b604080519115158252519081900360200190f35b3480156101d057600080fd5b50610207600480360360608110156101e757600080fd5b506001600160a01b03813581169160208101359091169060400135610526565b005b34801561021557600080fd5b5061021e610588565b60408051918252519081900360200190f35b34801561023c57600080fd5b506101b06004803603606081101561025357600080fd5b506001600160a01b0381358116916020810135909116906040013561058c565b34801561027f57600080fd5b506102076004803603602081101561029657600080fd5b50356106c0565b3480156102a957600080fd5b506102b2610755565b6040805160ff9092168252519081900360200190f35b3480156102d457600080fd5b5061021e61075e565b3480156102e957600080fd5b5061021e6004803603602081101561030057600080fd5b50356001600160a01b0316610764565b34801561031c57600080fd5b5061021e6004803603602081101561033357600080fd5b50356001600160a01b0316610776565b34801561034f57600080fd5b50610102610788565b34801561036457600080fd5b506101b06004803603604081101561037b57600080fd5b506001600160a01b0381351690602001356107e2565b6102076107f6565b3480156103a557600080fd5b50610207600480360360e08110156103bc57600080fd5b506001600160a01b03813581169160208101359091169060408101359060608101359060ff6080820135169060a08101359060c00135610845565b34801561040357600080fd5b5061021e6004803603604081101561041a57600080fd5b506001600160a01b0381358116916020013516610a6c565b6000805460408051602060026001851615610100026000190190941693909304601f810184900484028201840190925281815292918301828280156104b85780601f1061048d576101008083540402835291602001916104b8565b820191906000526020600020905b81548152906001019060200180831161049b57829003601f168201915b505050505081565b3360008181526004602090815260408083206001600160a01b038716808552908352818420869055815186815291519394909390927f8c5be1e5ebec7d5bd14f71427d1e84f3dd0314c0f7b2291e5b200ac8c7c3b925928290030190a350600192915050565b6001600160a01b03808416600081815260046020908152604080832094871680845294825291829020859055815185815291517f8c5be1e5ebec7d5bd14f71427d1e84f3dd0314c0f7b2291e5b200ac8c7c3b9259281900390910190a3505050565b4790565b6001600160a01b0383166000908152600360205260408120548211156105b157600080fd5b6001600160a01b03841633148015906105ef57506001600160a01b038416600090815260046020908152604080832033845290915290205460001914155b1561064f576001600160a01b038416600090815260046020908152604080832033845290915290205482111561062457600080fd5b6001600160a01b03841660009081526004602090815260408083203384529091529020805483900390555b6001600160a01b03808516600081815260036020908152604080832080548890039055938716808352918490208054870190558351868152935191937fddf252ad1be2c89b69c2b068fc378daa952ba7f163c4a11628f55a4df523b3ef929081900390910190a35060019392505050565b336000908152600360205260409020548111156106dc57600080fd5b33600081815260036020526040808220805485900390555183156108fc0291849190818181858888f1935050505015801561071b573d6000803e3d6000fd5b5060408051828152905133917f7fcf532c15f0a6db0bd6d0e038bea71d30d808c7d98cb3bf7268a95bf5081b65919081900360200190a250565b60025460ff1681565b60055481565b60036020526000908152604090205481565b60066020526000908152604090205481565b60018054604080516020600284861615610100026000190190941693909304601f810184900484028201840190925281815292918301828280156104b85780601f1061048d576101008083540402835291602001916104b8565b60006107ef33848461058c565b9392505050565b33600081815260036020908152604091829020805434908101909155825190815291517fe1fffcc4923d04b559f4d29a8bfc6cda04eb5b0d3c460751c2402c5c5cc9109c9281900390910190a2565b4284101561089a576040805162461bcd60e51b815260206004820152600d60248201527f574554483a204558504952454400000000000000000000000000000000000000604482015290519081900360640190fd5b60006040518080610a8a60529139604080519182900360520182206001600160a01b03808d16600081815260066020908152858220805460018082019092558289019690965287870193909352928e166060870152608086018d905260a086019390935260c08086018c90528451808703909101815260e0860185528051908301206005547f190100000000000000000000000000000000000000000000000000000000000061010088015261010287015261012280870182905285518088039091018152610142870180875281519185019190912090859052610162870180875281905260ff8c166101828801526101a287018b90526101c287018a90529451909750939550919391926101e280840193601f198301929081900390910190855afa1580156109ce573d6000803e3d6000fd5b5050604051601f1901519150506001600160a01b03811615801590610a045750896001600160a01b0316816001600160a01b0316145b610a55576040805162461bcd60e51b815260206004820152601760248201527f574554483a20494e56414c49445f5349474e4154555245000000000000000000604482015290519081900360640190fd5b610a608a8a8a610526565b50505050505050505050565b60046020908152600092835260408084209091529082529020548156fe5065726d69742861646472657373206f776e65722c61646472657373207370656e6465722c75696e743235362076616c75652c75696e74323536206e6f6e63652c75696e7432353620646561646c696e6529a265627a7a72315820c30b7b334ea9f7eaa15233308ca20bd75fb3e565395270cfb94d2624c247ea5764736f6c63430005100032454950373132446f6d61696e28737472696e67206e616d652c737472696e672076657273696f6e2c75696e7432353620636861696e49642c6164647265737320766572696679696e67436f6e747261637429",
  "linkReferences": {},
  "deployedLinkReferences": {}
}