{
  "_format": "hh-sol-artifact-1",
  "contractName": "StokeMarketplace",
  "sourceName": "contracts/StokeMarketPlace.sol",
  "abi": [
    {
      "inputs": [],
      "stateMutability": "nonpayable",
      "type": "constructor"
    },
    {
      "anonymous": false,
      "inputs": [
        {
          "indexed": true,
          "internalType": "address",
          "name": "previousOwner",
          "type": "address"
        },
        {
          "indexed": true,
          "internalType": "address",
          "name": "newOwner",
          "type": "address"
        }
      ],
      "name": "OwnershipTransferred",
      "type": "event"
    },
    {
      "inputs": [
        {
          "components": [
            {
              "internalType": "address",
              "name": "sender",
              "type": "address"
            },
            {
              "internalType": "uint256",
              "name": "amount",
              "type": "uint256"
            },
            {
              "internalType": "uint256",
              "name": "expiresAt",
              "type": "uint256"
            }
          ],
          "internalType": "struct StokeMarketplace.Offer",
          "name": "offer",
          "type": "tuple"
        },
        {
          "internalType": "address",
          "name": "WETH",
          "type": "address"
        },
        {
          "internalType": "address",
          "name": "_nftContract",
          "type": "address"
        },
        {
          "components": [
            {
              "internalType": "uint256",
              "name": "tokenId",
              "type": "uint256"
            },
            {
              "internalType": "string",
              "name": "tokenURI",
              "type": "string"
            }
          ],
          "internalType": "struct StokeMarketplace.Token",
          "name": "token",
          "type": "tuple"
        },
        {
          "internalType": "bytes",
          "name": "signature",
          "type": "bytes"
        }
      ],
      "name": "accept",
      "outputs": [],
      "stateMutability": "nonpayable",
      "type": "function"
    },
    {
      "inputs": [
        {
          "internalType": "uint256",
          "name": "_tokenId",
          "type": "uint256"
        }
      ],
      "name": "auctionDetail",
      "outputs": [
        {
          "internalType": "uint256",
          "name": "",
          "type": "uint256"
        },
        {
          "internalType": "address",
          "name": "",
          "type": "address"
        }
      ],
      "stateMutability": "view",
      "type": "function"
    },
    {
      "inputs": [
        {
          "internalType": "uint256",
          "name": "",
          "type": "uint256"
        }
      ],
      "name": "auctionSaleNftList",
      "outputs": [
        {
          "internalType": "uint256",
          "name": "",
          "type": "uint256"
        }
      ],
      "stateMutability": "view",
      "type": "function"
    },
    {
      "inputs": [
        {
          "internalType": "uint256",
          "name": "_tokenId",
          "type": "uint256"
        }
      ],
      "name": "buyAuction",
      "outputs": [],
      "stateMutability": "payable",
      "type": "function"
    },
    {
      "inputs": [
        {
          "internalType": "uint256",
          "name": "_tokenId",
          "type": "uint256"
        },
        {
          "internalType": "address",
          "name": "_nftContract",
          "type": "address"
        }
      ],
      "name": "buyNft",
      "outputs": [],
      "stateMutability": "payable",
      "type": "function"
    },
    {
      "inputs": [
        {
          "internalType": "address payable",
          "name": "_recipient",
          "type": "address"
        },
        {
          "internalType": "uint256",
          "name": "_tokenId",
          "type": "uint256"
        },
        {
          "internalType": "address",
          "name": "_nftContract",
          "type": "address"
        }
      ],
      "name": "buyOrder",
      "outputs": [],
      "stateMutability": "payable",
      "type": "function"
    },
    {
      "inputs": [
        {
          "internalType": "uint256",
          "name": "_tokenId",
          "type": "uint256"
        },
        {
          "internalType": "address",
          "name": "_nftContract",
          "type": "address"
        }
      ],
      "name": "cancelFixedSale",
      "outputs": [],
      "stateMutability": "nonpayable",
      "type": "function"
    },
    {
      "inputs": [
        {
          "internalType": "uint256",
          "name": "",
          "type": "uint256"
        },
        {
          "internalType": "uint256",
          "name": "",
          "type": "uint256"
        }
      ],
      "name": "collectionStored",
      "outputs": [
        {
          "internalType": "uint256",
          "name": "",
          "type": "uint256"
        }
      ],
      "stateMutability": "view",
      "type": "function"
    },
    {
      "inputs": [
        {
          "internalType": "uint256",
          "name": "",
          "type": "uint256"
        }
      ],
      "name": "fixedSaleNftList",
      "outputs": [
        {
          "internalType": "uint256",
          "name": "",
          "type": "uint256"
        }
      ],
      "stateMutability": "view",
      "type": "function"
    },
    {
      "inputs": [
        {
          "internalType": "uint256[]",
          "name": "_tokenIds",
          "type": "uint256[]"
        },
        {
          "internalType": "uint256[]",
          "name": "_prices",
          "type": "uint256[]"
        },
        {
          "internalType": "uint256[]",
          "name": "_startTimes",
          "type": "uint256[]"
        },
        {
          "internalType": "uint256[]",
          "name": "_endTimes",
          "type": "uint256[]"
        },
        {
          "internalType": "address[]",
          "name": "_nftContracts",
          "type": "address[]"
        }
      ],
      "name": "fixedSales",
      "outputs": [],
      "stateMutability": "nonpayable",
      "type": "function"
    },
    {
      "inputs": [
        {
          "internalType": "uint256",
          "name": "_tokenId",
          "type": "uint256"
        }
      ],
      "name": "listfixedSaleNfts",
      "outputs": [
        {
          "internalType": "uint256[]",
          "name": "",
          "type": "uint256[]"
        },
        {
          "internalType": "uint256[]",
          "name": "",
          "type": "uint256[]"
        },
        {
          "internalType": "uint256",
          "name": "",
          "type": "uint256"
        },
        {
          "internalType": "uint256",
          "name": "",
          "type": "uint256"
        }
      ],
      "stateMutability": "view",
      "type": "function"
    },
    {
      "inputs": [],
      "name": "marketFee",
      "outputs": [
        {
          "internalType": "uint8",
          "name": "",
          "type": "uint8"
        }
      ],
      "stateMutability": "view",
      "type": "function"
    },
    {
      "inputs": [],
      "name": "marketOwner",
      "outputs": [
        {
          "internalType": "address payable",
          "name": "",
          "type": "address"
        }
      ],
      "stateMutability": "view",
      "type": "function"
    },
    {
      "inputs": [
        {
          "internalType": "uint256",
          "name": "",
          "type": "uint256"
        }
      ],
      "name": "nftCollectionId",
      "outputs": [
        {
          "internalType": "uint256",
          "name": "",
          "type": "uint256"
        }
      ],
      "stateMutability": "view",
      "type": "function"
    },
    {
      "inputs": [
        {
          "internalType": "uint256",
          "name": "",
          "type": "uint256"
        }
      ],
      "name": "nftStakeState",
      "outputs": [
        {
          "internalType": "bool",
          "name": "",
          "type": "bool"
        }
      ],
      "stateMutability": "view",
      "type": "function"
    },
    {
      "inputs": [
        {
          "internalType": "uint256",
          "name": "",
          "type": "uint256"
        }
      ],
      "name": "originalOwner",
      "outputs": [
        {
          "internalType": "address",
          "name": "",
          "type": "address"
        }
      ],
      "stateMutability": "view",
      "type": "function"
    },
    {
      "inputs": [],
      "name": "owner",
      "outputs": [
        {
          "internalType": "address",
          "name": "",
          "type": "address"
        }
      ],
      "stateMutability": "view",
      "type": "function"
    },
    {
      "inputs": [
        {
          "internalType": "uint256",
          "name": "_tokenId",
          "type": "uint256"
        },
        {
          "internalType": "address",
          "name": "_nftContract",
          "type": "address"
        }
      ],
      "name": "removeFromAuction",
      "outputs": [],
      "stateMutability": "nonpayable",
      "type": "function"
    },
    {
      "inputs": [],
      "name": "renounceOwnership",
      "outputs": [],
      "stateMutability": "nonpayable",
      "type": "function"
    },
    {
      "inputs": [
        {
          "internalType": "uint8",
          "name": "_marketFee",
          "type": "uint8"
        }
      ],
      "name": "setMarketFee",
      "outputs": [],
      "stateMutability": "nonpayable",
      "type": "function"
    },
    {
      "inputs": [
        {
          "internalType": "uint256[]",
          "name": "_tokenIds",
          "type": "uint256[]"
        },
        {
          "internalType": "bool[]",
          "name": "_methods",
          "type": "bool[]"
        },
        {
          "internalType": "uint256[]",
          "name": "_minPrices",
          "type": "uint256[]"
        },
        {
          "internalType": "uint256[]",
          "name": "_maxPrices",
          "type": "uint256[]"
        },
        {
          "internalType": "uint256[]",
          "name": "_startTimes",
          "type": "uint256[]"
        },
        {
          "internalType": "uint256[]",
          "name": "_endTimes",
          "type": "uint256[]"
        },
        {
          "internalType": "address[]",
          "name": "_nftContracts",
          "type": "address[]"
        }
      ],
      "name": "startAuction",
      "outputs": [],
      "stateMutability": "nonpayable",
      "type": "function"
    },
    {
      "inputs": [
        {
          "internalType": "uint256",
          "name": "_tokenId",
          "type": "uint256"
        }
      ],
      "name": "timing",
      "outputs": [
        {
          "internalType": "uint256",
          "name": "",
          "type": "uint256"
        }
      ],
      "stateMutability": "view",
      "type": "function"
    },
    {
      "inputs": [],
      "name": "tokenIdMint",
      "outputs": [
        {
          "internalType": "uint256",
          "name": "",
          "type": "uint256"
        }
      ],
      "stateMutability": "view",
      "type": "function"
    },
    {
      "inputs": [
        {
          "internalType": "address",
          "name": "",
          "type": "address"
        }
      ],
      "name": "totalCollection",
      "outputs": [
        {
          "internalType": "uint256",
          "name": "",
          "type": "uint256"
        }
      ],
      "stateMutability": "view",
      "type": "function"
    },
    {
      "inputs": [
        {
          "internalType": "uint256",
          "name": "",
          "type": "uint256"
        }
      ],
      "name": "totalNft",
      "outputs": [
        {
          "internalType": "uint256",
          "name": "",
          "type": "uint256"
        }
      ],
      "stateMutability": "view",
      "type": "function"
    },
    {
      "inputs": [
        {
          "internalType": "address",
          "name": "newOwner",
          "type": "address"
        }
      ],
      "name": "transferOwnership",
      "outputs": [],
      "stateMutability": "nonpayable",
      "type": "function"
    },
    {
      "inputs": [
        {
          "internalType": "uint256",
          "name": "_tokenId",
          "type": "uint256"
        },
        {
          "internalType": "bool",
          "name": "choice",
          "type": "bool"
        }
      ],
      "name": "upgradeAuction",
      "outputs": [],
      "stateMutability": "payable",
      "type": "function"
    },
    {
      "inputs": [
        {
          "internalType": "address",
          "name": "",
          "type": "address"
        },
        {
          "internalType": "uint256",
          "name": "",
          "type": "uint256"
        }
      ],
      "name": "userInfo",
      "outputs": [
        {
          "internalType": "uint256",
          "name": "",
          "type": "uint256"
        }
      ],
      "stateMutability": "view",
      "type": "function"
    }
  ],
  "bytecode": "0x60806040526005805460ff191660fa17905534801561001d57600080fd5b50600160005561002c33610043565b600380546001600160a01b03191633179055610095565b600180546001600160a01b038381166001600160a01b0319831681179093556040519116919082907f8be0079c531659141344cd1fd0a4f28419497f9722a3daafe3b4186f6b6457e090600090a35050565b6131c980620000a56000396000f3fe6080604052600436106101b75760003560e01c80637e362135116100ec578063bc3ad1451161008a578063e771e36b11610064578063e771e36b14610588578063f2fde38b146105b5578063fbb286ec146105d5578063fd8acc42146105f557600080fd5b8063bc3ad14514610525578063c2f5c0ef14610538578063d14aa3651461055857600080fd5b80638faba53e116100c65780638faba53e1461048b578063913f5fca146104b8578063ab066ed9146104e5578063b9d2ddc51461050557600080fd5b80637e362135146104265780638da5cb5b1461043c5780638f0e39cd1461045a57600080fd5b806340bb154d116101595780636b94143a116101335780636b94143a1461037857806370bf164d1461038b578063715018a6146103ab5780637d84cb99146103c057600080fd5b806340bb154d146102ca57806347d90b5c14610318578063615b397c1461033857600080fd5b80631b5777a2116101955780631b5777a21461024a5780631d85e2c21461027757806321c0320d1461029757806321ce919d146102aa57600080fd5b80630ccf2156146101bc5780630d69cb40146101ed5780631b01dcd91461020f575b600080fd5b3480156101c857600080fd5b506005546101d69060ff1681565b60405160ff90911681526020015b60405180910390f35b3480156101f957600080fd5b5061020d6102083660046129df565b610608565b005b34801561021b57600080fd5b5061023c61022a366004612ab1565b600e6020526000908152604090205481565b6040519081526020016101e4565b34801561025657600080fd5b5061023c610265366004612ab1565b600b6020526000908152604090205481565b34801561028357600080fd5b5061020d610292366004612bcc565b610a9d565b61020d6102a5366004612c85565b611079565b3480156102b657600080fd5b5061023c6102c5366004612cc7565b61122c565b3480156102d657600080fd5b506103006102e5366004612ab1565b6017602052600090815260409020546001600160a01b031681565b6040516001600160a01b0390911681526020016101e4565b34801561032457600080fd5b50600354610300906001600160a01b031681565b34801561034457600080fd5b50610368610353366004612ab1565b60166020526000908152604090205460ff1681565b60405190151581526020016101e4565b61020d610386366004612d01565b61125d565b34801561039757600080fd5b5061023c6103a6366004612ab1565b611665565b3480156103b757600080fd5b5061020d6116ad565b3480156103cc57600080fd5b506104096103db366004612ab1565b60009081526012602090815260408083206006015460159092529091205490916001600160a01b0390911690565b604080519283526001600160a01b039091166020830152016101e4565b34801561043257600080fd5b5061023c60045481565b34801561044857600080fd5b506001546001600160a01b0316610300565b34801561046657600080fd5b5061020d610475366004612d31565b6005805460ff191660ff92909216919091179055565b34801561049757600080fd5b5061023c6104a6366004612ab1565b600f6020526000908152604090205481565b3480156104c457600080fd5b5061023c6104d3366004612ab1565b60146020526000908152604090205481565b3480156104f157600080fd5b5061020d610500366004612d54565b611713565b34801561051157600080fd5b5061023c610520366004612d79565b611846565b61020d610533366004612d54565b611862565b34801561054457600080fd5b5061020d610553366004612dff565b611c44565b34801561056457600080fd5b50610578610573366004612ab1565b612176565b6040516101e49493929190612f55565b34801561059457600080fd5b5061023c6105a3366004612f8e565b600a6020526000908152604090205481565b3480156105c157600080fd5b5061020d6105d0366004612f8e565b612254565b3480156105e157600080fd5b5061020d6105f0366004612d54565b612336565b61020d610603366004612ab1565b61245e565b60005b85518160ff161015610a95576000868260ff168151811061062e5761062e612fab565b6020908102919091018101516000818152601290925260409091206005015490915060ff16156106975760405162461bcd60e51b815260206004820152600f60248201526e616c726561647920696e2073616c6560881b60448201526064015b60405180910390fd5b60008181526006602052604090206003015460ff16156106eb5760405162461bcd60e51b815260206004820152600f60248201526e616c726561647920696e2073616c6560881b604482015260640161068e565b336001600160a01b0316838360ff168151811061070a5761070a612fab565b60200260200101516001600160a01b0316636352211e836040518263ffffffff1660e01b815260040161073f91815260200190565b60206040518083038186803b15801561075757600080fd5b505afa15801561076b573d6000803e3d6000fd5b505050506040513d601f19601f8201168201806040525081019061078f9190612fc1565b6001600160a01b0316146107e55760405162461bcd60e51b815260206004820152601160248201527f596f7520617265206e6f74206f776e6572000000000000000000000000000000604482015260640161068e565b848260ff16815181106107fa576107fa612fab565b60200260200101516011600083815260200190815260200160002060000181905550838260ff168151811061083157610831612fab565b60200260200101516011600083815260200190815260200160002060010181905550858260ff168151811061086857610868612fab565b6020908102919091018101516000838152601190925260409091206002810191909155600301805460ff191660011790558551869060ff84169081106108b0576108b0612fab565b602090810291909101810151600083815260068352604080822060028101939093556003909201805460ff19166001908117909155600c8054600e909552928220849055830182559081527fdf6966c971051c3d54ec59162606531493a51404a002842f56009d7e5cf4a8c79091018290558351849060ff851690811061093957610939612fab565b60200260200101516001600160a01b0316636352211e836040518263ffffffff1660e01b815260040161096e91815260200190565b60206040518083038186803b15801561098657600080fd5b505afa15801561099a573d6000803e3d6000fd5b505050506040513d601f19601f820116820180604052508101906109be9190612fc1565b6000838152601760205260409020805473ffffffffffffffffffffffffffffffffffffffff19166001600160a01b0383161790558451909150849060ff8516908110610a0c57610a0c612fab565b60209081029190910101516040516323b872dd60e01b81526001600160a01b03838116600483015230602483015260448201859052909116906323b872dd90606401600060405180830381600087803b158015610a6857600080fd5b505af1158015610a7c573d6000803e3d6000fd5b5050505050508080610a8d90612ff4565b91505061060b565b505050505050565b4285604001511015610af15760405162461bcd60e51b815260206004820152601e60248201527f4d61726b6574506c6163653a20746865206f6666657220657870697265640000604482015260640161068e565b600554602086015160009161271091610b0d9160ff1690613014565b610b179190613033565b86516040517f70a082310000000000000000000000000000000000000000000000000000000081526001600160a01b039182166004820152919250600091908716906370a082319060240160206040518083038186803b158015610b7a57600080fd5b505afa158015610b8e573d6000803e3d6000fd5b505050506040513d601f19601f82011682018060405250810190610bb29190613055565b90508660200151811015610c2e5760405162461bcd60e51b815260206004820152602e60248201527f4d61726b6574506c6163653a204f666665722073656e64657220686173206e6f60448201527f20656e6f7567687420746f6b656e000000000000000000000000000000000000606482015260840161068e565b865160208801516040516001600160a01b039283166024820152306044820152606481019190915260009188169060840160408051601f198184030181529181526020820180517bffffffffffffffffffffffffffffffffffffffffffffffffffffffff167f104e81ff0000000000000000000000000000000000000000000000000000000017905251610cc2919061309a565b6000604051808303816000865af19150503d8060008114610cff576040519150601f19603f3d011682016040523d82523d6000602084013e610d04565b606091505b5050905080610d555760405162461bcd60e51b815260206004820152601c60248201527f5f617070726f766520656e636f6465576974685369676e617475726500000000604482015260640161068e565b875185516040808b015190516000936001600160a01b038b1693610d7f9333938b906024016130b6565b60408051601f198184030181529181526020820180517bffffffffffffffffffffffffffffffffffffffffffffffffffffffff167f24744d540000000000000000000000000000000000000000000000000000000017905251610de2919061309a565b6000604051808303816000865af19150503d8060008114610e1f576040519150601f19603f3d011682016040523d82523d6000602084013e610e24565b606091505b505060208a01518a516040517fdd62ed3e0000000000000000000000000000000000000000000000000000000081526001600160a01b0391821660048201523060248201529293509091908a169063dd62ed3e9060440160206040518083038186803b158015610e9357600080fd5b505afa158015610ea7573d6000803e3d6000fd5b505050506040513d601f19601f82011682018060405250810190610ecb9190613055565b14610f185760405162461bcd60e51b815260206004820152601360248201527f696e73756666696369656e7420616d6f756e7400000000000000000000000000604482015260640161068e565b876001600160a01b03166323b872dd8a6000015133878d60200151610f3d9190613124565b6040517fffffffff0000000000000000000000000000000000000000000000000000000060e086901b1681526001600160a01b0393841660048201529290911660248301526044820152606401602060405180830381600087803b158015610fa457600080fd5b505af1158015610fb8573d6000803e3d6000fd5b505050506040513d601f19601f82011682018060405250810190610fdc919061313b565b5088516003546040516323b872dd60e01b81526001600160a01b039283166004820152908216602482015260448101869052908916906323b872dd90606401602060405180830381600087803b15801561103557600080fd5b505af1158015611049573d6000803e3d6000fd5b505050506040513d601f19601f8201168201806040525081019061106d919061313b565b50505050505050505050565b6040517f081812fc0000000000000000000000000000000000000000000000000000000081526004810183905230906001600160a01b0383169063081812fc9060240160206040518083038186803b1580156110d457600080fd5b505afa1580156110e8573d6000803e3d6000fd5b505050506040513d601f19601f8201168201806040525081019061110c9190612fc1565b6001600160a01b0316146111885760405162461bcd60e51b815260206004820152603660248201527f4d61726b6574506c6163653a2054686520746f6b656e206d757374206265206160448201527f7070726f76656420746f206d61726b6574706c61636500000000000000000000606482015260840161068e565b6040516323b872dd60e01b81526001600160a01b038481166004830152336024830152604482018490528216906323b872dd90606401600060405180830381600087803b1580156111d857600080fd5b505af11580156111ec573d6000803e3d6000fd5b50506040516001600160a01b03861692503480156108fc029250906000818181858888f19350505050158015611226573d6000803e3d6000fd5b50505050565b6009602052816000526040600020818154811061124857600080fd5b90600052602060002001600091509150505481565b600082815260126020526040902060010154421080159061128f57506000828152601260205260409020600201544211155b6113015760405162461bcd60e51b815260206004820152602160248201527f61756374696f6e2073616c65206e6f742073746172746564206f7220656e646560448201527f6400000000000000000000000000000000000000000000000000000000000000606482015260840161068e565b6005546000906113169060ff16612710613158565b905081156114455760008381526013602090815260408083203384529091528120805434929061134790849061317b565b9091555050600083815260126020908152604080832060060154601383528184203385529092529091205411156114405760008381526012602090815260408083203460069091018190556015909252808320805473ffffffffffffffffffffffffffffffffffffffff19163317905551909190309083908381818185875af1925050503d80600081146113f7576040519150601f19603f3d011682016040523d82523d6000602084013e6113fc565b606091505b505090508061143d5760405162461bcd60e51b815260206004820152600d60248201526c1c99599d5b990819985a5b1959609a1b604482015260640161068e565b50505b505050565b6000838152601560205260409020546001600160a01b031633146114405760008381526013602090815260408083203384529091529020546114c95760405162461bcd60e51b815260206004820152600e60248201527f596f7520646f6e7420616c6c6f77000000000000000000000000000000000000604482015260640161068e565b6000838152601360209081526040808320338452909152812054906127106114f561ffff851684613014565b6114ff9190613033565b600554909150600090612710906115199060ff1685613014565b6115239190613033565b604051909150600090339084908381818185875af1925050503d8060008114611568576040519150601f19603f3d011682016040523d82523d6000602084013e61156d565b606091505b50509050806115ae5760405162461bcd60e51b815260206004820152600d60248201526c1c99599d5b990819985a5b1959609a1b604482015260640161068e565b6003546040516000916001600160a01b03169084908381818185875af1925050503d80600081146115fb576040519150601f19603f3d011682016040523d82523d6000602084013e611600565b606091505b50509050806116415760405162461bcd60e51b815260206004820152600d60248201526c1c99599d5b990819985a5b1959609a1b604482015260640161068e565b50505060008581526013602090815260408083203384529091528120555050505050565b60008181526012602052604081206002015442116116a05760008281526012602052604090206002015461169a904290613124565b92915050565b506000919050565b919050565b6001546001600160a01b031633146117075760405162461bcd60e51b815260206004820181905260248201527f4f776e61626c653a2063616c6c6572206973206e6f7420746865206f776e6572604482015260640161068e565b61171160006127fd565b565b6000828152601760205260409020546001600160a01b031633146117795760405162461bcd60e51b815260206004820152601960248201527f596f7520617265206e6f74206f726967696e616c4f776e657200000000000000604482015260640161068e565b600082815260126020526040808220600381018390556006810183905560058101805460ff191690556001810183905560020191909155516323b872dd60e01b8152306004820152336024820152604481018390526001600160a01b038216906323b872dd90606401600060405180830381600087803b1580156117fc57600080fd5b505af1158015611810573d6000803e3d6000fd5b5050506000838152600f6020526040902054600d8054909250811061183757611837612fab565b60009182526020822001555050565b6007602052816000526040600020818154811061124857600080fd5b60008281526011602052604090206003015460ff166118c35760405162461bcd60e51b815260206004820152601360248201527f696e707574206475726174696f6e2074696d6500000000000000000000000000604482015260640161068e565b60008281526006602052604090206003015460ff166119245760405162461bcd60e51b815260206004820152600f60248201527f6e6674206e6f7420696e2073616c650000000000000000000000000000000000604482015260640161068e565b6000828152601160205260409020544210156119825760405162461bcd60e51b815260206004820152601660248201527f66697865642073616c65206e6f74207374617274656400000000000000000000604482015260640161068e565b6000828152601160205260409020600101544211156119e35760405162461bcd60e51b815260206004820152601060248201527f66697865642073616c6520656e64656400000000000000000000000000000000604482015260640161068e565b6005546000906119f89060ff16612710613158565b6000848152600660205260409020600201549091503490811015611a5e5760405162461bcd60e51b815260206004820152601760248201527f70726963652073686f756c642062652067726561746572000000000000000000604482015260640161068e565b6000612710611a7161ffff851684613014565b611a7b9190613033565b60055490915060009061271090611a959060ff1685613014565b611a9f9190613033565b6000878152601760205260408082205490519293506001600160a01b031691829085908381818185875af1925050503d8060008114611afa576040519150601f19603f3d011682016040523d82523d6000602084013e611aff565b606091505b5050905080611b405760405162461bcd60e51b815260206004820152600d60248201526c1c99599d5b990819985a5b1959609a1b604482015260640161068e565b6003546040516000916001600160a01b03169085908381818185875af1925050503d8060008114611b8d576040519150601f19603f3d011682016040523d82523d6000602084013e611b92565b606091505b5050905080611bd35760405162461bcd60e51b815260206004820152600d60248201526c1c99599d5b990819985a5b1959609a1b604482015260640161068e565b6040516323b872dd60e01b8152306004820152336024820152604481018a90526001600160a01b038916906323b872dd90606401600060405180830381600087803b158015611c2157600080fd5b505af1158015611c35573d6000803e3d6000fd5b50505050505050505050505050565b60005b87518160ff16101561216c576000888260ff1681518110611c6a57611c6a612fab565b6020908102919091018101516000818152601690925260409091205490915060ff1615611cd95760405162461bcd60e51b815260206004820152600c60248201527f6e6674206973207374616b650000000000000000000000000000000000000000604482015260640161068e565b60008181526012602052604090206005015460ff1615611d2d5760405162461bcd60e51b815260206004820152600f60248201526e616c726561647920696e2073616c6560881b604482015260640161068e565b60008181526006602052604090206003015460ff1615611d815760405162461bcd60e51b815260206004820152600f60248201526e616c726561647920696e2073616c6560881b604482015260640161068e565b336001600160a01b0316838360ff1681518110611da057611da0612fab565b60200260200101516001600160a01b0316636352211e836040518263ffffffff1660e01b8152600401611dd591815260200190565b60206040518083038186803b158015611ded57600080fd5b505afa158015611e01573d6000803e3d6000fd5b505050506040513d601f19601f82011682018060405250810190611e259190612fc1565b6001600160a01b031614611e7b5760405162461bcd60e51b815260206004820152601160248201527f596f7520617265206e6f74206f776e6572000000000000000000000000000000604482015260640161068e565b878260ff1681518110611e9057611e90612fab565b602090810291909101810151600083815260129092526040909120805460ff19169115159190911790558451859060ff8416908110611ed157611ed1612fab565b60200260200101516012600083815260200190815260200160002060010181905550838260ff1681518110611f0857611f08612fab565b602090810291909101810151600083815260128084526040808320600281019490945560058401805460ff19166001908117909155600d8054600f885292852083905590820190557fd7b6990105719101dabeb77144f2a3385c8033acd3af97e9423a695e81ad1eb501859055908490529091525460ff1615611fc157868260ff1681518110611f9a57611f9a612fab565b60200260200101516012600083815260200190815260200160002060030181905550612030565b858260ff1681518110611fd657611fd6612fab565b60200260200101516012600083815260200190815260200160002060040181905550868260ff168151811061200d5761200d612fab565b602002602001015160126000838152602001908152602001600020600301819055505b6000838360ff168151811061204757612047612fab565b60200260200101516001600160a01b0316636352211e836040518263ffffffff1660e01b815260040161207c91815260200190565b60206040518083038186803b15801561209457600080fd5b505afa1580156120a8573d6000803e3d6000fd5b505050506040513d601f19601f820116820180604052508101906120cc9190612fc1565b9050838360ff16815181106120e3576120e3612fab565b60209081029190910101516040516323b872dd60e01b81526001600160a01b03838116600483015230602483015260448201859052909116906323b872dd90606401600060405180830381600087803b15801561213f57600080fd5b505af1158015612153573d6000803e3d6000fd5b505050505050808061216490612ff4565b915050611c47565b5050505050505050565b6000818152601260209081526040808320600301546006835281842060020154600c80548451818702810187019095528085526060968796909586959394600d949390928691908301828280156121ec57602002820191906000526020600020905b8154815260200190600101908083116121d8575b505050505093508280548060200260200160405190810160405280929190818152602001828054801561223e57602002820191906000526020600020905b81548152602001906001019080831161222a575b5050505050925093509350935093509193509193565b6001546001600160a01b031633146122ae5760405162461bcd60e51b815260206004820181905260248201527f4f776e61626c653a2063616c6c6572206973206e6f7420746865206f776e6572604482015260640161068e565b6001600160a01b03811661232a5760405162461bcd60e51b815260206004820152602660248201527f4f776e61626c653a206e6577206f776e657220697320746865207a65726f206160448201527f6464726573730000000000000000000000000000000000000000000000000000606482015260840161068e565b612333816127fd565b50565b6000828152601760205260409020546001600160a01b0316331461239c5760405162461bcd60e51b815260206004820152601a60248201527f796f7520617265206e6f74206f726967696e616c206f776e6572000000000000604482015260640161068e565b6000828152600660209081526040808320600281018490556003908101805460ff1990811690915560119093529281902090920180549091169055516323b872dd60e01b8152306004820152336024820152604481018390526001600160a01b038216906323b872dd90606401600060405180830381600087803b15801561242357600080fd5b505af1158015612437573d6000803e3d6000fd5b5050506000838152600e6020526040902054600c8054909250811061183757611837612fab565b60008181526012602052604090206005015460ff166124bf5760405162461bcd60e51b815260206004820152600f60248201527f6e6674206e6f7420696e2073616c650000000000000000000000000000000000604482015260640161068e565b6000818152601260205260409020600101544210156125205760405162461bcd60e51b815260206004820152601860248201527f61756374696f6e2073616c65206e6f7420737461727465640000000000000000604482015260640161068e565b6000818152601260205260409020600201544211156125815760405162461bcd60e51b815260206004820152601660248201527f61756374696f6e2073616c65206e6f7420656e64656400000000000000000000604482015260640161068e565b6000818152601260205260409020600301543410156125e25760405162461bcd60e51b815260206004820152601860248201527f616d6f756e742073686f756c6420626520677265617465720000000000000000604482015260640161068e565b60008181526012602052604090205460ff161561265e5760008181526012602052604090206006015434116126595760405162461bcd60e51b815260206004820152601760248201527f70726576696f75732062696464696e6720616d6f756e74000000000000000000604482015260640161068e565b61271f565b6000818152601260205260409020600401543411156126bf5760405162461bcd60e51b815260206004820152601560248201527f616d6f756e742073686f756c64206265206c6573730000000000000000000000604482015260640161068e565b600081815260126020526040902060060154341061271f5760405162461bcd60e51b815260206004820152601760248201527f70726576696f75732062696464696e6720616d6f756e74000000000000000000604482015260640161068e565b600081815260126020908152604080832034600690910181905560138352818420338086529084528285208290558585526015909352818420805473ffffffffffffffffffffffffffffffffffffffff191690931790925551909190309083908381818185875af1925050503d80600081146127b7576040519150601f19603f3d011682016040523d82523d6000602084013e6127bc565b606091505b50509050806114405760405162461bcd60e51b815260206004820152600d60248201526c1c99599d5b990819985a5b1959609a1b604482015260640161068e565b600180546001600160a01b0383811673ffffffffffffffffffffffffffffffffffffffff19831681179093556040519116919082907f8be0079c531659141344cd1fd0a4f28419497f9722a3daafe3b4186f6b6457e090600090a35050565b634e487b7160e01b600052604160045260246000fd5b6040516060810167ffffffffffffffff811182821017156128955761289561285c565b60405290565b604051601f8201601f1916810167ffffffffffffffff811182821017156128c4576128c461285c565b604052919050565b600067ffffffffffffffff8211156128e6576128e661285c565b5060051b60200190565b600082601f83011261290157600080fd5b81356020612916612911836128cc565b61289b565b82815260059290921b8401810191818101908684111561293557600080fd5b8286015b848110156129505780358352918301918301612939565b509695505050505050565b6001600160a01b038116811461233357600080fd5b80356116a88161295b565b600082601f83011261298c57600080fd5b8135602061299c612911836128cc565b82815260059290921b840181019181810190868411156129bb57600080fd5b8286015b848110156129505780356129d28161295b565b83529183019183016129bf565b600080600080600060a086880312156129f757600080fd5b853567ffffffffffffffff80821115612a0f57600080fd5b612a1b89838a016128f0565b96506020880135915080821115612a3157600080fd5b612a3d89838a016128f0565b95506040880135915080821115612a5357600080fd5b612a5f89838a016128f0565b94506060880135915080821115612a7557600080fd5b612a8189838a016128f0565b93506080880135915080821115612a9757600080fd5b50612aa48882890161297b565b9150509295509295909350565b600060208284031215612ac357600080fd5b5035919050565b600067ffffffffffffffff831115612ae457612ae461285c565b612af7601f8401601f191660200161289b565b9050828152838383011115612b0b57600080fd5b828260208301376000602084830101529392505050565b600060408284031215612b3457600080fd5b6040516040810167ffffffffffffffff8282108183111715612b5857612b5861285c565b81604052829350843583526020850135915080821115612b7757600080fd5b508301601f81018513612b8957600080fd5b612b9885823560208401612aca565b6020830152505092915050565b600082601f830112612bb657600080fd5b612bc583833560208501612aca565b9392505050565b600080600080600085870360e0811215612be557600080fd5b6060811215612bf357600080fd5b50612bfc612872565b8635612c078161295b565b815260208781013590820152604080880135908201529450612c2b60608701612970565b9350612c3960808701612970565b925060a086013567ffffffffffffffff80821115612c5657600080fd5b612c6289838a01612b22565b935060c0880135915080821115612c7857600080fd5b50612aa488828901612ba5565b600080600060608486031215612c9a57600080fd5b8335612ca58161295b565b9250602084013591506040840135612cbc8161295b565b809150509250925092565b60008060408385031215612cda57600080fd5b8235612ce58161295b565b946020939093013593505050565b801515811461233357600080fd5b60008060408385031215612d1457600080fd5b823591506020830135612d2681612cf3565b809150509250929050565b600060208284031215612d4357600080fd5b813560ff81168114612bc557600080fd5b60008060408385031215612d6757600080fd5b823591506020830135612d268161295b565b60008060408385031215612d8c57600080fd5b50508035926020909101359150565b600082601f830112612dac57600080fd5b81356020612dbc612911836128cc565b82815260059290921b84018101918181019086841115612ddb57600080fd5b8286015b84811015612950578035612df281612cf3565b8352918301918301612ddf565b600080600080600080600060e0888a031215612e1a57600080fd5b873567ffffffffffffffff80821115612e3257600080fd5b612e3e8b838c016128f0565b985060208a0135915080821115612e5457600080fd5b612e608b838c01612d9b565b975060408a0135915080821115612e7657600080fd5b612e828b838c016128f0565b965060608a0135915080821115612e9857600080fd5b612ea48b838c016128f0565b955060808a0135915080821115612eba57600080fd5b612ec68b838c016128f0565b945060a08a0135915080821115612edc57600080fd5b612ee88b838c016128f0565b935060c08a0135915080821115612efe57600080fd5b50612f0b8a828b0161297b565b91505092959891949750929550565b600081518084526020808501945080840160005b83811015612f4a57815187529582019590820190600101612f2e565b509495945050505050565b608081526000612f686080830187612f1a565b8281036020840152612f7a8187612f1a565b604084019590955250506060015292915050565b600060208284031215612fa057600080fd5b8135612bc58161295b565b634e487b7160e01b600052603260045260246000fd5b600060208284031215612fd357600080fd5b8151612bc58161295b565b634e487b7160e01b600052601160045260246000fd5b600060ff821660ff81141561300b5761300b612fde565b60010192915050565b600081600019048311821515161561302e5761302e612fde565b500290565b60008261305057634e487b7160e01b600052601260045260246000fd5b500490565b60006020828403121561306757600080fd5b5051919050565b60005b83811015613089578181015183820152602001613071565b838111156112265750506000910152565b600082516130ac81846020870161306e565b9190910192915050565b60006001600160a01b03808816835280871660208401525084604083015260c06060830152600060c083015283608083015260e060a083015282518060e084015261010061310a828286016020880161306e565b80601f19601f840116850101925050509695505050505050565b60008282101561313657613136612fde565b500390565b60006020828403121561314d57600080fd5b8151612bc581612cf3565b600061ffff8381169083168181101561317357613173612fde565b039392505050565b6000821982111561318e5761318e612fde565b50019056fea2646970667358221220d6934e0fef67816e819d824bf461c1591e37fb15d0ab4c64f1660b721ace1c8864736f6c63430008080033",
  "linkReferences": {},
  "deployedLinkReferences": {}
}