{
  "_format": "hh-sol-artifact-1",
  "contractName": "StokeMarketplace",
  "sourceName": "contracts/StokeMarketPlace.sol",
  "abi": [
    {
      "inputs": [],
      "stateMutability": "nonpayable",
      "type": "constructor"
    },
    {
      "inputs": [
        {
          "internalType": "address",
          "name": "_token",
          "type": "address"
        },
        {
          "internalType": "address",
          "name": "_sender",
          "type": "address"
        },
        {
          "internalType": "uint256",
          "name": "_amount",
          "type": "uint256"
        },
        {
          "internalType": "uint256",
          "name": "_expiresAt",
          "type": "uint256"
        },
        {
          "internalType": "address",
          "name": "_nftContract",
          "type": "address"
        },
        {
          "internalType": "uint256",
          "name": "_tokenId",
          "type": "uint256"
        },
        {
          "internalType": "string",
          "name": "_tokenURI",
          "type": "string"
        }
      ],
      "name": "acceptOffer",
      "outputs": [],
      "stateMutability": "nonpayable",
      "type": "function"
    },
    {
      "inputs": [],
      "name": "marketowner",
      "outputs": [
        {
          "internalType": "address payable",
          "name": "",
          "type": "address"
        }
      ],
      "stateMutability": "view",
      "type": "function"
    }
  ],
  "bytecode": "0x608060405234801561001057600080fd5b506001600055600280546001600160a01b031916331790556107be806100376000396000f3fe608060405234801561001057600080fd5b50600436106100365760003560e01c806340ae56af1461003b5780635e385b9214610050575b600080fd5b61004e610049366004610542565b61007f565b005b600254610063906001600160a01b031681565b6040516001600160a01b03909116815260200160405180910390f35b600260005414156100d75760405162461bcd60e51b815260206004820152601f60248201527f5265656e7472616e637947756172643a207265656e7472616e742063616c6c0060448201526064015b60405180910390fd5b60026000554284101561012c5760405162461bcd60e51b815260206004820152601e60248201527f4d61726b6574706c6163653a20746865206f666665722065787069726564000060448201526064016100ce565b60196103e860008161013e848a610658565b6101489190610677565b6040517fdd62ed3e0000000000000000000000000000000000000000000000000000000081526001600160a01b038b8116600483015230602483015291925089918c169063dd62ed3e9060440160206040518083038186803b1580156101ad57600080fd5b505afa1580156101c1573d6000803e3d6000fd5b505050506040513d601f19601f820116820180604052508101906101e59190610699565b146102325760405162461bcd60e51b815260206004820152601360248201527f696e73756666696369656e7420616d6f756e740000000000000000000000000060448201526064016100ce565b6001600160a01b038a166323b872dd8a3361024d858d6106b2565b6040517fffffffff0000000000000000000000000000000000000000000000000000000060e086901b1681526001600160a01b0393841660048201529290911660248301526044820152606401602060405180830381600087803b1580156102b457600080fd5b505af11580156102c8573d6000803e3d6000fd5b505050506040513d601f19601f820116820180604052508101906102ec91906106c9565b506002546040517f23b872dd0000000000000000000000000000000000000000000000000000000081526001600160a01b038b81166004830152918216602482015260448101839052908b16906323b872dd90606401602060405180830381600087803b15801561035c57600080fd5b505af1158015610370573d6000803e3d6000fd5b505050506040513d601f19601f8201168201806040525081019061039491906106c9565b50600080876001600160a01b0316878c886040516024016103b793929190610722565b60408051601f198184030181529181526020820180517bffffffffffffffffffffffffffffffffffffffffffffffffffffffff167fd9b38c51000000000000000000000000000000000000000000000000000000001790525161041a919061076c565b6000604051808303816000865af19150503d8060008114610457576040519150601f19603f3d011682016040523d82523d6000602084013e61045c565b606091505b509150915061046a8261047d565b5050600160005550505050505050505050565b60405181151560248201526104ec9060440160408051601f198184030181529190526020810180517bffffffffffffffffffffffffffffffffffffffffffffffffffffffff167f32458eed000000000000000000000000000000000000000000000000000000001790526104ef565b50565b80516a636f6e736f6c652e6c6f67602083016000808483855afa5050505050565b80356001600160a01b038116811461052757600080fd5b919050565b634e487b7160e01b600052604160045260246000fd5b600080600080600080600060e0888a03121561055d57600080fd5b61056688610510565b965061057460208901610510565b9550604088013594506060880135935061059060808901610510565b925060a0880135915060c088013567ffffffffffffffff808211156105b457600080fd5b818a0191508a601f8301126105c857600080fd5b8135818111156105da576105da61052c565b604051601f8201601f19908116603f011681019083821181831017156106025761060261052c565b816040528281528d602084870101111561061b57600080fd5b82602086016020830137600060208483010152809550505050505092959891949750929550565b634e487b7160e01b600052601160045260246000fd5b600081600019048311821515161561067257610672610642565b500290565b60008261069457634e487b7160e01b600052601260045260246000fd5b500490565b6000602082840312156106ab57600080fd5b5051919050565b6000828210156106c4576106c4610642565b500390565b6000602082840312156106db57600080fd5b815180151581146106eb57600080fd5b9392505050565b60005b8381101561070d5781810151838201526020016106f5565b8381111561071c576000848401525b50505050565b8381526001600160a01b038316602082015260606040820152600082518060608401526107568160808501602087016106f2565b601f01601f191691909101608001949350505050565b6000825161077e8184602087016106f2565b919091019291505056fea2646970667358221220a29d23ad28f2a0fe8a031b736964c7fcb381bb38fcd3052e6eb98e52f2cffb1164736f6c63430008080033",
  "linkReferences": {},
  "deployedLinkReferences": {}
}