{
  "_format": "hh-sol-artifact-1",
  "contractName": "StokeNFT",
  "sourceName": "contracts/StokeNFT.sol",
  "abi": [
    {
      "anonymous": false,
      "inputs": [
        {
          "indexed": true,
          "internalType": "address",
          "name": "owner",
          "type": "address"
        },
        {
          "indexed": true,
          "internalType": "address",
          "name": "approved",
          "type": "address"
        },
        {
          "indexed": true,
          "internalType": "uint256",
          "name": "tokenId",
          "type": "uint256"
        }
      ],
      "name": "Approval",
      "type": "event"
    },
    {
      "anonymous": false,
      "inputs": [
        {
          "indexed": true,
          "internalType": "address",
          "name": "owner",
          "type": "address"
        },
        {
          "indexed": true,
          "internalType": "address",
          "name": "operator",
          "type": "address"
        },
        {
          "indexed": false,
          "internalType": "bool",
          "name": "approved",
          "type": "bool"
        }
      ],
      "name": "ApprovalForAll",
      "type": "event"
    },
    {
      "anonymous": false,
      "inputs": [
        {
          "indexed": true,
          "internalType": "address",
          "name": "from",
          "type": "address"
        },
        {
          "indexed": true,
          "internalType": "address",
          "name": "to",
          "type": "address"
        },
        {
          "indexed": true,
          "internalType": "uint256",
          "name": "tokenId",
          "type": "uint256"
        }
      ],
      "name": "Transfer",
      "type": "event"
    },
    {
      "inputs": [],
      "name": "DOMAIN_SEPARATOR",
      "outputs": [
        {
          "internalType": "bytes32",
          "name": "",
          "type": "bytes32"
        }
      ],
      "stateMutability": "view",
      "type": "function"
    },
    {
      "inputs": [
        {
          "internalType": "uint256",
          "name": "_tokenId",
          "type": "uint256"
        }
      ],
      "name": "IsExistToken",
      "outputs": [
        {
          "internalType": "bool",
          "name": "",
          "type": "bool"
        }
      ],
      "stateMutability": "view",
      "type": "function"
    },
    {
      "inputs": [
        {
          "internalType": "address",
          "name": "to",
          "type": "address"
        },
        {
          "internalType": "uint256",
          "name": "tokenId",
          "type": "uint256"
        }
      ],
      "name": "approve",
      "outputs": [],
      "stateMutability": "nonpayable",
      "type": "function"
    },
    {
      "inputs": [
        {
          "internalType": "address",
          "name": "owner",
          "type": "address"
        }
      ],
      "name": "balanceOf",
      "outputs": [
        {
          "internalType": "uint256",
          "name": "",
          "type": "uint256"
        }
      ],
      "stateMutability": "view",
      "type": "function"
    },
    {
      "inputs": [
        {
          "internalType": "string",
          "name": "_tokenURI",
          "type": "string"
        },
        {
          "internalType": "uint256",
          "name": "_tokenId",
          "type": "uint256"
        },
        {
          "internalType": "address",
          "name": "marketContract",
          "type": "address"
        }
      ],
      "name": "createOrder",
      "outputs": [],
      "stateMutability": "nonpayable",
      "type": "function"
    },
    {
      "inputs": [
        {
          "internalType": "uint256",
          "name": "_tokenId",
          "type": "uint256"
        },
        {
          "internalType": "address",
          "name": "recipient",
          "type": "address"
        },
        {
          "internalType": "string",
          "name": "tokenURI",
          "type": "string"
        }
      ],
      "name": "createToken",
      "outputs": [
        {
          "internalType": "uint256",
          "name": "",
          "type": "uint256"
        }
      ],
      "stateMutability": "nonpayable",
      "type": "function"
    },
    {
      "inputs": [
        {
          "internalType": "uint256",
          "name": "tokenId",
          "type": "uint256"
        }
      ],
      "name": "getApproved",
      "outputs": [
        {
          "internalType": "address",
          "name": "",
          "type": "address"
        }
      ],
      "stateMutability": "view",
      "type": "function"
    },
    {
      "inputs": [
        {
          "internalType": "address",
          "name": "owner",
          "type": "address"
        },
        {
          "internalType": "address",
          "name": "operator",
          "type": "address"
        }
      ],
      "name": "isApprovedForAll",
      "outputs": [
        {
          "internalType": "bool",
          "name": "",
          "type": "bool"
        }
      ],
      "stateMutability": "view",
      "type": "function"
    },
    {
      "inputs": [],
      "name": "name",
      "outputs": [
        {
          "internalType": "string",
          "name": "",
          "type": "string"
        }
      ],
      "stateMutability": "view",
      "type": "function"
    },
    {
      "inputs": [
        {
          "internalType": "uint256",
          "name": "tokenId",
          "type": "uint256"
        }
      ],
      "name": "nonces",
      "outputs": [
        {
          "internalType": "uint256",
          "name": "",
          "type": "uint256"
        }
      ],
      "stateMutability": "view",
      "type": "function"
    },
    {
      "inputs": [
        {
          "internalType": "uint256",
          "name": "tokenId",
          "type": "uint256"
        }
      ],
      "name": "ownerOf",
      "outputs": [
        {
          "internalType": "address",
          "name": "",
          "type": "address"
        }
      ],
      "stateMutability": "view",
      "type": "function"
    },
    {
      "inputs": [
        {
          "internalType": "address",
          "name": "spender",
          "type": "address"
        },
        {
          "internalType": "uint256",
          "name": "tokenId",
          "type": "uint256"
        },
        {
          "internalType": "uint256",
          "name": "deadline",
          "type": "uint256"
        },
        {
          "internalType": "bytes",
          "name": "signature",
          "type": "bytes"
        }
      ],
      "name": "permit",
      "outputs": [],
      "stateMutability": "nonpayable",
      "type": "function"
    },
    {
      "inputs": [
        {
          "internalType": "address",
          "name": "from",
          "type": "address"
        },
        {
          "internalType": "address",
          "name": "to",
          "type": "address"
        },
        {
          "internalType": "uint256",
          "name": "tokenId",
          "type": "uint256"
        }
      ],
      "name": "safeTransferFrom",
      "outputs": [],
      "stateMutability": "nonpayable",
      "type": "function"
    },
    {
      "inputs": [
        {
          "internalType": "address",
          "name": "from",
          "type": "address"
        },
        {
          "internalType": "address",
          "name": "to",
          "type": "address"
        },
        {
          "internalType": "uint256",
          "name": "tokenId",
          "type": "uint256"
        },
        {
          "internalType": "bytes",
          "name": "_data",
          "type": "bytes"
        }
      ],
      "name": "safeTransferFrom",
      "outputs": [],
      "stateMutability": "nonpayable",
      "type": "function"
    },
    {
      "inputs": [
        {
          "internalType": "address",
          "name": "from",
          "type": "address"
        },
        {
          "internalType": "address",
          "name": "to",
          "type": "address"
        },
        {
          "internalType": "uint256",
          "name": "tokenId",
          "type": "uint256"
        },
        {
          "internalType": "bytes",
          "name": "_data",
          "type": "bytes"
        },
        {
          "internalType": "uint256",
          "name": "deadline",
          "type": "uint256"
        },
        {
          "internalType": "bytes",
          "name": "signature",
          "type": "bytes"
        }
      ],
      "name": "safeTransferFromWithPermit",
      "outputs": [],
      "stateMutability": "nonpayable",
      "type": "function"
    },
    {
      "inputs": [
        {
          "internalType": "address",
          "name": "operator",
          "type": "address"
        },
        {
          "internalType": "bool",
          "name": "approved",
          "type": "bool"
        }
      ],
      "name": "setApprovalForAll",
      "outputs": [],
      "stateMutability": "nonpayable",
      "type": "function"
    },
    {
      "inputs": [
        {
          "internalType": "bytes4",
          "name": "interfaceId",
          "type": "bytes4"
        }
      ],
      "name": "supportsInterface",
      "outputs": [
        {
          "internalType": "bool",
          "name": "",
          "type": "bool"
        }
      ],
      "stateMutability": "view",
      "type": "function"
    },
    {
      "inputs": [],
      "name": "symbol",
      "outputs": [
        {
          "internalType": "string",
          "name": "",
          "type": "string"
        }
      ],
      "stateMutability": "view",
      "type": "function"
    },
    {
      "inputs": [
        {
          "internalType": "uint256",
          "name": "tokenId",
          "type": "uint256"
        }
      ],
      "name": "tokenURI",
      "outputs": [
        {
          "internalType": "string",
          "name": "",
          "type": "string"
        }
      ],
      "stateMutability": "view",
      "type": "function"
    },
    {
      "inputs": [
        {
          "internalType": "uint256",
          "name": "",
          "type": "uint256"
        }
      ],
      "name": "tokens",
      "outputs": [
        {
          "internalType": "uint256",
          "name": "tokenId",
          "type": "uint256"
        }
      ],
      "stateMutability": "view",
      "type": "function"
    },
    {
      "inputs": [],
      "name": "totalSupply",
      "outputs": [
        {
          "internalType": "uint256",
          "name": "",
          "type": "uint256"
        }
      ],
      "stateMutability": "view",
      "type": "function"
    },
    {
      "inputs": [
        {
          "internalType": "address",
          "name": "from",
          "type": "address"
        },
        {
          "internalType": "address",
          "name": "to",
          "type": "address"
        },
        {
          "internalType": "uint256",
          "name": "tokenId",
          "type": "uint256"
        }
      ],
      "name": "transferFrom",
      "outputs": [],
      "stateMutability": "nonpayable",
      "type": "function"
    }
  ],
  "bytecode": "0x6101606040527f49ecf333e5b8c95c40fdafc95c1ad136e8914a8fb55e9dc8bb01eaa83a2df9ad610140523480156200003757600080fd5b506040518060400160405280600881526020016714dd1bdad953919560c21b8152506040518060400160405280600381526020016213919560ea1b81525081604051806040016040528060018152602001603160f81b81525083838160009080519060200190620000aa92919062000160565b508051620000c090600190602084019062000160565b5050825160208085019190912083518483012060e08290526101008190524660a0818152604080517f8b73c3c69bb8fe3d512ecc4cf759cc79239f7b179b0ffacaa9a75d522b39400f81880181905281830187905260608201869052608082019490945230818401528151808203909301835260c0019052805194019390932091935091906080523060601b60c052610120525062000243945050505050565b8280546200016e9062000206565b90600052602060002090601f016020900481019282620001925760008555620001dd565b82601f10620001ad57805160ff1916838001178555620001dd565b82800160010185558215620001dd579182015b82811115620001dd578251825591602001919060010190620001c0565b50620001eb929150620001ef565b5090565b5b80821115620001eb5760008155600101620001f0565b600181811c908216806200021b57607f821691505b602082108114156200023d57634e487b7160e01b600052602260045260246000fd5b50919050565b60805160a05160c05160601c60e051610100516101205161014051612227620002a16000396000610e4f015260006110000152600061104f0152600061102a01526000610f8301526000610fad01526000610fd701526122276000f3fe608060405234801561001057600080fd5b50600436106101825760003560e01c80634f64b2be116100d857806395d89b411161008c578063c87b56dd11610066578063c87b56dd1461031b578063d9b38c511461032e578063e985e9c51461034157600080fd5b806395d89b41146102ed578063a22cb465146102f5578063b88d4fde1461030857600080fd5b806370a08231116100bd57806370a08231146102b4578063745a41bc146102c757806395439652146102da57600080fd5b80634f64b2be146102815780636352211e146102a157600080fd5b8063141a468c1161013a57806324744d541161011457806324744d54146102535780633644e5151461026657806342842e0e1461026e57600080fd5b8063141a468c1461021757806318160ddd1461023857806323b872dd1461024057600080fd5b8063081812fc1161016b578063081812fc146101c4578063095ea7b3146101ef57806310f2f61d1461020457600080fd5b806301ffc9a71461018757806306fdde03146101af575b600080fd5b61019a610195366004611c09565b61037d565b60405190151581526020015b60405180910390f35b6101b76103c1565b6040516101a69190611c7e565b6101d76101d2366004611c91565b610453565b6040516001600160a01b0390911681526020016101a6565b6102026101fd366004611cc6565b6104ed565b005b610202610212366004611d93565b61061f565b61022a610225366004611c91565b61067e565b6040519081526020016101a6565b61022a610692565b61020261024e366004611dea565b6106a2565b610202610261366004611e26565b610729565b61022a610749565b61020261027c366004611dea565b610753565b61022a61028f366004611c91565b60086020526000908152604090205481565b6101d76102af366004611c91565b61076e565b61022a6102c2366004611ebd565b6107f9565b6102026102d5366004611ed8565b610893565b61019a6102e8366004611c91565b61089f565b6101b76108c3565b610202610303366004611f39565b6108d2565b610202610316366004611f75565b6108e1565b6101b7610329366004611c91565b610969565b61022a61033c366004611fc5565b610a5e565b61019a61034f36600461201c565b6001600160a01b03918216600090815260056020908152604080832093909416825291909152205460ff1690565b60006001600160e01b031982167f5604e2250000000000000000000000000000000000000000000000000000000014806103bb57506103bb82610af9565b92915050565b6060600080546103d09061204f565b80601f01602080910402602001604051908101604052809291908181526020018280546103fc9061204f565b80156104495780601f1061041e57610100808354040283529160200191610449565b820191906000526020600020905b81548152906001019060200180831161042c57829003601f168201915b5050505050905090565b6000818152600260205260408120546001600160a01b03166104d15760405162461bcd60e51b815260206004820152602c60248201527f4552433732313a20617070726f76656420717565727920666f72206e6f6e657860448201526b34b9ba32b73a103a37b5b2b760a11b60648201526084015b60405180910390fd5b506000908152600460205260409020546001600160a01b031690565b60006104f88261076e565b9050806001600160a01b0316836001600160a01b031614156105825760405162461bcd60e51b815260206004820152602160248201527f4552433732313a20617070726f76616c20746f2063757272656e74206f776e6560448201527f720000000000000000000000000000000000000000000000000000000000000060648201526084016104c8565b336001600160a01b038216148061059e575061059e813361034f565b6106105760405162461bcd60e51b815260206004820152603860248201527f4552433732313a20617070726f76652063616c6c6572206973206e6f74206f7760448201527f6e6572206e6f7220617070726f76656420666f7220616c6c000000000000000060648201526084016104c8565b61061a8383610b94565b505050565b61062d600780546001019055565b600061063860075490565b90506106443384610c0f565b61064e8385610c29565b60408051602080820183528582526000848152600890915291909120905190556106788284610b94565b50505050565b6000818152600660205260408120546103bb565b600061069d60075490565b905090565b6106ac3382610cd2565b61071e5760405162461bcd60e51b815260206004820152603160248201527f4552433732313a207472616e736665722063616c6c6572206973206e6f74206f60448201527f776e6572206e6f7220617070726f76656400000000000000000000000000000060648201526084016104c8565b61061a838383610dc9565b61073533858484610de9565b610741868686866108e1565b505050505050565b600061069d610f76565b61061a838383604051806020016040528060008152506108e1565b6000818152600260205260408120546001600160a01b0316806103bb5760405162461bcd60e51b815260206004820152602960248201527f4552433732313a206f776e657220717565727920666f72206e6f6e657869737460448201527f656e7420746f6b656e000000000000000000000000000000000000000000000060648201526084016104c8565b60006001600160a01b0382166108775760405162461bcd60e51b815260206004820152602a60248201527f4552433732313a2062616c616e636520717565727920666f7220746865207a6560448201527f726f20616464726573730000000000000000000000000000000000000000000060648201526084016104c8565b506001600160a01b031660009081526003602052604090205490565b61067884848484610de9565b60008181526002602052604081205481906001600160a01b031615155b9392505050565b6060600180546103d09061204f565b6108dd33838361109d565b5050565b6108eb3383610cd2565b61095d5760405162461bcd60e51b815260206004820152603160248201527f4552433732313a207472616e736665722063616c6c6572206973206e6f74206f60448201527f776e6572206e6f7220617070726f76656400000000000000000000000000000060648201526084016104c8565b6106788484848461116c565b6000818152600260205260409020546060906001600160a01b03166109f65760405162461bcd60e51b815260206004820152602f60248201527f4552433732314d657461646174613a2055524920717565727920666f72206e6f60448201527f6e6578697374656e7420746f6b656e000000000000000000000000000000000060648201526084016104c8565b6000610a0d60408051602081019091526000815290565b90506000815111610a2d57604051806020016040528060008152506108bc565b80610a37846111ea565b604051602001610a4892919061208a565b6040516020818303038152906040529392505050565b6000610a6e600780546001019055565b6000610a7960075490565b6000868152600260205260409020549091506001600160a01b031615801590610aba576000610aa78761076e565b9050610ab4818789610dc9565b50610aef565b610ac48587610c0f565b610ace8685610c29565b60408051602080820183528882526000858152600890915291909120905190555b5093949350505050565b60006001600160e01b031982167f80ac58cd000000000000000000000000000000000000000000000000000000001480610b5c57506001600160e01b031982167f5b5e139f00000000000000000000000000000000000000000000000000000000145b806103bb57507f01ffc9a7000000000000000000000000000000000000000000000000000000006001600160e01b03198316146103bb565b6000818152600460205260409020805473ffffffffffffffffffffffffffffffffffffffff19166001600160a01b0384169081179091558190610bd68261076e565b6001600160a01b03167f8c5be1e5ebec7d5bd14f71427d1e84f3dd0314c0f7b2291e5b200ac8c7c3b92560405160405180910390a45050565b6108dd82826040518060200160405280600081525061131c565b6000828152600260205260409020546001600160a01b0316610cb35760405162461bcd60e51b815260206004820152602e60248201527f45524337323155524953746f726167653a2055524920736574206f66206e6f6e60448201527f6578697374656e7420746f6b656e00000000000000000000000000000000000060648201526084016104c8565b6000828152600960209081526040909120825161061a92840190611b57565b6000818152600260205260408120546001600160a01b0316610d4b5760405162461bcd60e51b815260206004820152602c60248201527f4552433732313a206f70657261746f7220717565727920666f72206e6f6e657860448201526b34b9ba32b73a103a37b5b2b760a11b60648201526084016104c8565b6000610d568361076e565b9050806001600160a01b0316846001600160a01b03161480610d9d57506001600160a01b0380821660009081526005602090815260408083209388168352929052205460ff165b80610dc15750836001600160a01b0316610db684610453565b6001600160a01b0316145b949350505050565b60008181526006602052604090208054600101905561061a83838361139a565b81421115610e395760405162461bcd60e51b815260206004820152601e60248201527f4552433732315065726d69743a206578706972656420646561646c696e65000060448201526064016104c8565b60008381526006602090815260408083205481517f0000000000000000000000000000000000000000000000000000000000000000818501526001600160a01b0389168184015260608101889052608081019190915260a08082018790528251808303909101815260c0909101909152805191012090610eb882611574565b90506000610ec682856115dd565b50905060006001600160a01b03821615801590610ee85750610ee88288610cd2565b90508080610f045750610f04610efd8861076e565b848761164d565b80610f165750610f16610efd88610453565b610f625760405162461bcd60e51b815260206004820152601f60248201527f4552433732315065726d69743a20696e76616c6964207369676e61747572650060448201526064016104c8565b610f6c8888610b94565b5050505050505050565b6000306001600160a01b037f000000000000000000000000000000000000000000000000000000000000000016148015610fcf57507f000000000000000000000000000000000000000000000000000000000000000046145b15610ff957507f000000000000000000000000000000000000000000000000000000000000000090565b50604080517f00000000000000000000000000000000000000000000000000000000000000006020808301919091527f0000000000000000000000000000000000000000000000000000000000000000828401527f000000000000000000000000000000000000000000000000000000000000000060608301524660808301523060a0808401919091528351808403909101815260c0909201909252805191012090565b816001600160a01b0316836001600160a01b031614156110ff5760405162461bcd60e51b815260206004820152601960248201527f4552433732313a20617070726f766520746f2063616c6c65720000000000000060448201526064016104c8565b6001600160a01b03838116600081815260056020908152604080832094871680845294825291829020805460ff191686151590811790915591519182527f17307eab39ab6107e8899845ad3d59bd9653f200f220920489ca2b5937696c31910160405180910390a3505050565b611177848484610dc9565b61118384848484611771565b6106785760405162461bcd60e51b815260206004820152603260248201527f4552433732313a207472616e7366657220746f206e6f6e20455243373231526560448201527131b2b4bb32b91034b6b83632b6b2b73a32b960711b60648201526084016104c8565b60608161122a57505060408051808201909152600181527f3000000000000000000000000000000000000000000000000000000000000000602082015290565b8160005b8115611254578061123e816120cf565b915061124d9050600a83612100565b915061122e565b60008167ffffffffffffffff81111561126f5761126f611cf0565b6040519080825280601f01601f191660200182016040528015611299576020820181803683370190505b5090505b8415610dc1576112ae600183612114565b91506112bb600a8661212b565b6112c690603061213f565b60f81b8183815181106112db576112db612157565b60200101907effffffffffffffffffffffffffffffffffffffffffffffffffffffffffffff1916908160001a905350611315600a86612100565b945061129d565b61132683836118c9565b6113336000848484611771565b61061a5760405162461bcd60e51b815260206004820152603260248201527f4552433732313a207472616e7366657220746f206e6f6e20455243373231526560448201527131b2b4bb32b91034b6b83632b6b2b73a32b960711b60648201526084016104c8565b826001600160a01b03166113ad8261076e565b6001600160a01b0316146114295760405162461bcd60e51b815260206004820152602560248201527f4552433732313a207472616e736665722066726f6d20696e636f72726563742060448201527f6f776e657200000000000000000000000000000000000000000000000000000060648201526084016104c8565b6001600160a01b0382166114a45760405162461bcd60e51b8152602060048201526024808201527f4552433732313a207472616e7366657220746f20746865207a65726f2061646460448201527f726573730000000000000000000000000000000000000000000000000000000060648201526084016104c8565b6114af600082610b94565b6001600160a01b03831660009081526003602052604081208054600192906114d8908490612114565b90915550506001600160a01b038216600090815260036020526040812080546001929061150690849061213f565b9091555050600081815260026020526040808220805473ffffffffffffffffffffffffffffffffffffffff19166001600160a01b0386811691821790925591518493918716917fddf252ad1be2c89b69c2b068fc378daa952ba7f163c4a11628f55a4df523b3ef91a4505050565b60006103bb611581610f76565b836040517f19010000000000000000000000000000000000000000000000000000000000006020820152602281018390526042810182905260009060620160405160208183030381529060405280519060200120905092915050565b6000808251604114156116145760208301516040840151606085015160001a61160887828585611a18565b94509450505050611646565b82516040141561163e5760208301516040840151611633868383611b05565b935093505050611646565b506000905060025b9250929050565b6000806000856001600160a01b0316631626ba7e60e01b868660405160240161167792919061216d565b60408051601f198184030181529181526020820180517bffffffffffffffffffffffffffffffffffffffffffffffffffffffff166001600160e01b03199094169390931790925290516116ca9190612186565b600060405180830381855afa9150503d8060008114611705576040519150601f19603f3d011682016040523d82523d6000602084013e61170a565b606091505b509150915081801561171d575080516020145b8015611767575080517f1626ba7e000000000000000000000000000000000000000000000000000000009061175b90830160209081019084016121a2565b6001600160e01b031916145b9695505050505050565b60006001600160a01b0384163b156118be57604051630a85bd0160e11b81526001600160a01b0385169063150b7a02906117b59033908990889088906004016121bf565b602060405180830381600087803b1580156117cf57600080fd5b505af19250505080156117ff575060408051601f3d908101601f191682019092526117fc918101906121a2565b60015b6118a4573d80801561182d576040519150601f19603f3d011682016040523d82523d6000602084013e611832565b606091505b50805161189c5760405162461bcd60e51b815260206004820152603260248201527f4552433732313a207472616e7366657220746f206e6f6e20455243373231526560448201527131b2b4bb32b91034b6b83632b6b2b73a32b960711b60648201526084016104c8565b805181602001fd5b6001600160e01b031916630a85bd0160e11b149050610dc1565b506001949350505050565b6001600160a01b03821661191f5760405162461bcd60e51b815260206004820181905260248201527f4552433732313a206d696e7420746f20746865207a65726f206164647265737360448201526064016104c8565b6000818152600260205260409020546001600160a01b0316156119845760405162461bcd60e51b815260206004820152601c60248201527f4552433732313a20746f6b656e20616c7265616479206d696e7465640000000060448201526064016104c8565b6001600160a01b03821660009081526003602052604081208054600192906119ad90849061213f565b9091555050600081815260026020526040808220805473ffffffffffffffffffffffffffffffffffffffff19166001600160a01b03861690811790915590518392907fddf252ad1be2c89b69c2b068fc378daa952ba7f163c4a11628f55a4df523b3ef908290a45050565b6000807f7fffffffffffffffffffffffffffffff5d576e7357a4501ddfe92f46681b20a0831115611a4f5750600090506003611afc565b8460ff16601b14158015611a6757508460ff16601c14155b15611a785750600090506004611afc565b6040805160008082526020820180845289905260ff881692820192909252606081018690526080810185905260019060a0016020604051602081039080840390855afa158015611acc573d6000803e3d6000fd5b5050604051601f1901519150506001600160a01b038116611af557600060019250925050611afc565b9150600090505b94509492505050565b6000807f7fffffffffffffffffffffffffffffffffffffffffffffffffffffffffffffff831681611b3b60ff86901c601b61213f565b9050611b4987828885611a18565b935093505050935093915050565b828054611b639061204f565b90600052602060002090601f016020900481019282611b855760008555611bcb565b82601f10611b9e57805160ff1916838001178555611bcb565b82800160010185558215611bcb579182015b82811115611bcb578251825591602001919060010190611bb0565b50611bd7929150611bdb565b5090565b5b80821115611bd75760008155600101611bdc565b6001600160e01b031981168114611c0657600080fd5b50565b600060208284031215611c1b57600080fd5b81356108bc81611bf0565b60005b83811015611c41578181015183820152602001611c29565b838111156106785750506000910152565b60008151808452611c6a816020860160208601611c26565b601f01601f19169290920160200192915050565b6020815260006108bc6020830184611c52565b600060208284031215611ca357600080fd5b5035919050565b80356001600160a01b0381168114611cc157600080fd5b919050565b60008060408385031215611cd957600080fd5b611ce283611caa565b946020939093013593505050565b634e487b7160e01b600052604160045260246000fd5b600082601f830112611d1757600080fd5b813567ffffffffffffffff80821115611d3257611d32611cf0565b604051601f8301601f19908116603f01168101908282118183101715611d5a57611d5a611cf0565b81604052838152866020858801011115611d7357600080fd5b836020870160208301376000602085830101528094505050505092915050565b600080600060608486031215611da857600080fd5b833567ffffffffffffffff811115611dbf57600080fd5b611dcb86828701611d06565b93505060208401359150611de160408501611caa565b90509250925092565b600080600060608486031215611dff57600080fd5b611e0884611caa565b9250611e1660208501611caa565b9150604084013590509250925092565b60008060008060008060c08789031215611e3f57600080fd5b611e4887611caa565b9550611e5660208801611caa565b945060408701359350606087013567ffffffffffffffff80821115611e7a57600080fd5b611e868a838b01611d06565b94506080890135935060a0890135915080821115611ea357600080fd5b50611eb089828a01611d06565b9150509295509295509295565b600060208284031215611ecf57600080fd5b6108bc82611caa565b60008060008060808587031215611eee57600080fd5b611ef785611caa565b93506020850135925060408501359150606085013567ffffffffffffffff811115611f2157600080fd5b611f2d87828801611d06565b91505092959194509250565b60008060408385031215611f4c57600080fd5b611f5583611caa565b915060208301358015158114611f6a57600080fd5b809150509250929050565b60008060008060808587031215611f8b57600080fd5b611f9485611caa565b9350611fa260208601611caa565b925060408501359150606085013567ffffffffffffffff811115611f2157600080fd5b600080600060608486031215611fda57600080fd5b83359250611fea60208501611caa565b9150604084013567ffffffffffffffff81111561200657600080fd5b61201286828701611d06565b9150509250925092565b6000806040838503121561202f57600080fd5b61203883611caa565b915061204660208401611caa565b90509250929050565b600181811c9082168061206357607f821691505b6020821081141561208457634e487b7160e01b600052602260045260246000fd5b50919050565b6000835161209c818460208801611c26565b8351908301906120b0818360208801611c26565b01949350505050565b634e487b7160e01b600052601160045260246000fd5b60006000198214156120e3576120e36120b9565b5060010190565b634e487b7160e01b600052601260045260246000fd5b60008261210f5761210f6120ea565b500490565b600082821015612126576121266120b9565b500390565b60008261213a5761213a6120ea565b500690565b60008219821115612152576121526120b9565b500190565b634e487b7160e01b600052603260045260246000fd5b828152604060208201526000610dc16040830184611c52565b60008251612198818460208701611c26565b9190910192915050565b6000602082840312156121b457600080fd5b81516108bc81611bf0565b60006001600160a01b038087168352808616602084015250836040830152608060608301526117676080830184611c5256fea2646970667358221220569bbd6dd389678529cdeb053fa701d2464a94b9a2ac7f484830acca9c713db464736f6c63430008080033",
  "linkReferences": {},
  "deployedLinkReferences": {}
}