{
  "_format": "hh-sol-artifact-1",
  "contractName": "StokeNFT",
  "sourceName": "contracts/StokeNFT.sol",
  "abi": [
    {
      "inputs": [],
      "stateMutability": "nonpayable",
      "type": "constructor"
    },
    {
      "anonymous": false,
      "inputs": [
        {
          "indexed": true,
          "internalType": "address",
          "name": "owner",
          "type": "address"
        },
        {
          "indexed": true,
          "internalType": "address",
          "name": "approved",
          "type": "address"
        },
        {
          "indexed": true,
          "internalType": "uint256",
          "name": "tokenId",
          "type": "uint256"
        }
      ],
      "name": "Approval",
      "type": "event"
    },
    {
      "anonymous": false,
      "inputs": [
        {
          "indexed": true,
          "internalType": "address",
          "name": "owner",
          "type": "address"
        },
        {
          "indexed": true,
          "internalType": "address",
          "name": "operator",
          "type": "address"
        },
        {
          "indexed": false,
          "internalType": "bool",
          "name": "approved",
          "type": "bool"
        }
      ],
      "name": "ApprovalForAll",
      "type": "event"
    },
    {
      "anonymous": false,
      "inputs": [
        {
          "indexed": true,
          "internalType": "address",
          "name": "from",
          "type": "address"
        },
        {
          "indexed": true,
          "internalType": "address",
          "name": "to",
          "type": "address"
        },
        {
          "indexed": true,
          "internalType": "uint256",
          "name": "tokenId",
          "type": "uint256"
        }
      ],
      "name": "Transfer",
      "type": "event"
    },
    {
      "inputs": [
        {
          "internalType": "uint256",
          "name": "_tokenId",
          "type": "uint256"
        }
      ],
      "name": "IsExistToken",
      "outputs": [
        {
          "internalType": "bool",
          "name": "",
          "type": "bool"
        }
      ],
      "stateMutability": "view",
      "type": "function"
    },
    {
      "inputs": [
        {
          "internalType": "address",
          "name": "to",
          "type": "address"
        },
        {
          "internalType": "uint256",
          "name": "tokenId",
          "type": "uint256"
        }
      ],
      "name": "approve",
      "outputs": [],
      "stateMutability": "nonpayable",
      "type": "function"
    },
    {
      "inputs": [
        {
          "internalType": "address",
          "name": "owner",
          "type": "address"
        }
      ],
      "name": "balanceOf",
      "outputs": [
        {
          "internalType": "uint256",
          "name": "",
          "type": "uint256"
        }
      ],
      "stateMutability": "view",
      "type": "function"
    },
    {
      "inputs": [
        {
          "internalType": "uint256",
          "name": "_tokenId",
          "type": "uint256"
        },
        {
          "internalType": "address",
          "name": "recipient",
          "type": "address"
        },
        {
          "internalType": "string",
          "name": "tokenURI",
          "type": "string"
        }
      ],
      "name": "createToken",
      "outputs": [
        {
          "internalType": "uint256",
          "name": "",
          "type": "uint256"
        }
      ],
      "stateMutability": "nonpayable",
      "type": "function"
    },
    {
      "inputs": [
        {
          "internalType": "uint256",
          "name": "tokenId",
          "type": "uint256"
        }
      ],
      "name": "getApproved",
      "outputs": [
        {
          "internalType": "address",
          "name": "",
          "type": "address"
        }
      ],
      "stateMutability": "view",
      "type": "function"
    },
    {
      "inputs": [
        {
          "internalType": "address",
          "name": "owner",
          "type": "address"
        },
        {
          "internalType": "address",
          "name": "operator",
          "type": "address"
        }
      ],
      "name": "isApprovedForAll",
      "outputs": [
        {
          "internalType": "bool",
          "name": "",
          "type": "bool"
        }
      ],
      "stateMutability": "view",
      "type": "function"
    },
    {
      "inputs": [],
      "name": "name",
      "outputs": [
        {
          "internalType": "string",
          "name": "",
          "type": "string"
        }
      ],
      "stateMutability": "view",
      "type": "function"
    },
    {
      "inputs": [
        {
          "internalType": "uint256",
          "name": "tokenId",
          "type": "uint256"
        }
      ],
      "name": "ownerOf",
      "outputs": [
        {
          "internalType": "address",
          "name": "",
          "type": "address"
        }
      ],
      "stateMutability": "view",
      "type": "function"
    },
    {
      "inputs": [
        {
          "internalType": "address",
          "name": "from",
          "type": "address"
        },
        {
          "internalType": "address",
          "name": "to",
          "type": "address"
        },
        {
          "internalType": "uint256",
          "name": "tokenId",
          "type": "uint256"
        }
      ],
      "name": "safeTransferFrom",
      "outputs": [],
      "stateMutability": "nonpayable",
      "type": "function"
    },
    {
      "inputs": [
        {
          "internalType": "address",
          "name": "from",
          "type": "address"
        },
        {
          "internalType": "address",
          "name": "to",
          "type": "address"
        },
        {
          "internalType": "uint256",
          "name": "tokenId",
          "type": "uint256"
        },
        {
          "internalType": "bytes",
          "name": "_data",
          "type": "bytes"
        }
      ],
      "name": "safeTransferFrom",
      "outputs": [],
      "stateMutability": "nonpayable",
      "type": "function"
    },
    {
      "inputs": [
        {
          "internalType": "address",
          "name": "operator",
          "type": "address"
        },
        {
          "internalType": "bool",
          "name": "approved",
          "type": "bool"
        }
      ],
      "name": "setApprovalForAll",
      "outputs": [],
      "stateMutability": "nonpayable",
      "type": "function"
    },
    {
      "inputs": [
        {
          "internalType": "bytes4",
          "name": "interfaceId",
          "type": "bytes4"
        }
      ],
      "name": "supportsInterface",
      "outputs": [
        {
          "internalType": "bool",
          "name": "",
          "type": "bool"
        }
      ],
      "stateMutability": "view",
      "type": "function"
    },
    {
      "inputs": [],
      "name": "symbol",
      "outputs": [
        {
          "internalType": "string",
          "name": "",
          "type": "string"
        }
      ],
      "stateMutability": "view",
      "type": "function"
    },
    {
      "inputs": [
        {
          "internalType": "uint256",
          "name": "tokenId",
          "type": "uint256"
        }
      ],
      "name": "tokenURI",
      "outputs": [
        {
          "internalType": "string",
          "name": "",
          "type": "string"
        }
      ],
      "stateMutability": "view",
      "type": "function"
    },
    {
      "inputs": [
        {
          "internalType": "uint256",
          "name": "",
          "type": "uint256"
        }
      ],
      "name": "tokens",
      "outputs": [
        {
          "internalType": "uint256",
          "name": "tokenId",
          "type": "uint256"
        }
      ],
      "stateMutability": "view",
      "type": "function"
    },
    {
      "inputs": [],
      "name": "totalSupply",
      "outputs": [
        {
          "internalType": "uint256",
          "name": "",
          "type": "uint256"
        }
      ],
      "stateMutability": "view",
      "type": "function"
    },
    {
      "inputs": [
        {
          "internalType": "address",
          "name": "from",
          "type": "address"
        },
        {
          "internalType": "address",
          "name": "to",
          "type": "address"
        },
        {
          "internalType": "uint256",
          "name": "tokenId",
          "type": "uint256"
        }
      ],
      "name": "transferFrom",
      "outputs": [],
      "stateMutability": "nonpayable",
      "type": "function"
    }
  ],
  "bytecode": "0x60806040523480156200001157600080fd5b50604080518082018252600881526714dd1bdad953919560c21b60208083019182528351808501909452600384526213919560ea1b9084015281519192916200005d916000916200007c565b508051620000739060019060208401906200007c565b5050506200015f565b8280546200008a9062000122565b90600052602060002090601f016020900481019282620000ae5760008555620000f9565b82601f10620000c957805160ff1916838001178555620000f9565b82800160010185558215620000f9579182015b82811115620000f9578251825591602001919060010190620000dc565b50620001079291506200010b565b5090565b5b808211156200010757600081556001016200010c565b600181811c908216806200013757607f821691505b602082108114156200015957634e487b7160e01b600052602260045260246000fd5b50919050565b611ab5806200016f6000396000f3fe608060405234801561001057600080fd5b506004361061011b5760003560e01c80636352211e116100b2578063a22cb46511610081578063c87b56dd11610066578063c87b56dd14610260578063d9b38c5114610273578063e985e9c51461028657600080fd5b8063a22cb4651461023a578063b88d4fde1461024d57600080fd5b80636352211e146101f957806370a082311461020c578063954396521461021f57806395d89b411461023257600080fd5b806318160ddd116100ee57806318160ddd1461019d57806323b872dd146101b357806342842e0e146101c65780634f64b2be146101d957600080fd5b806301ffc9a71461012057806306fdde0314610148578063081812fc1461015d578063095ea7b314610188575b600080fd5b61013361012e3660046115e8565b6102c2565b60405190151581526020015b60405180910390f35b61015061035f565b60405161013f919061165d565b61017061016b366004611670565b6103f1565b6040516001600160a01b03909116815260200161013f565b61019b6101963660046116a5565b61048b565b005b6101a56105bd565b60405190815260200161013f565b61019b6101c13660046116cf565b6105cd565b61019b6101d43660046116cf565b610654565b6101a56101e7366004611670565b60086020526000908152604090205481565b610170610207366004611670565b61066f565b6101a561021a36600461170b565b6106fa565b61013361022d366004611670565b610794565b6101506107b8565b61019b610248366004611726565b6107c7565b61019b61025b3660046117ee565b6107d6565b61015061026e366004611670565b610864565b6101a561028136600461186a565b6109f7565b6101336102943660046118d5565b6001600160a01b03918216600090815260056020908152604080832093909416825291909152205460ff1690565b60006001600160e01b031982167f80ac58cd00000000000000000000000000000000000000000000000000000000148061032557506001600160e01b031982167f5b5e139f00000000000000000000000000000000000000000000000000000000145b8061035957507f01ffc9a7000000000000000000000000000000000000000000000000000000006001600160e01b03198316145b92915050565b60606000805461036e90611908565b80601f016020809104026020016040519081016040528092919081815260200182805461039a90611908565b80156103e75780601f106103bc576101008083540402835291602001916103e7565b820191906000526020600020905b8154815290600101906020018083116103ca57829003601f168201915b5050505050905090565b6000818152600260205260408120546001600160a01b031661046f5760405162461bcd60e51b815260206004820152602c60248201527f4552433732313a20617070726f76656420717565727920666f72206e6f6e657860448201526b34b9ba32b73a103a37b5b2b760a11b60648201526084015b60405180910390fd5b506000908152600460205260409020546001600160a01b031690565b60006104968261066f565b9050806001600160a01b0316836001600160a01b031614156105205760405162461bcd60e51b815260206004820152602160248201527f4552433732313a20617070726f76616c20746f2063757272656e74206f776e6560448201527f72000000000000000000000000000000000000000000000000000000000000006064820152608401610466565b336001600160a01b038216148061053c575061053c8133610294565b6105ae5760405162461bcd60e51b815260206004820152603860248201527f4552433732313a20617070726f76652063616c6c6572206973206e6f74206f7760448201527f6e6572206e6f7220617070726f76656420666f7220616c6c00000000000000006064820152608401610466565b6105b88383610a92565b505050565b60006105c860075490565b905090565b6105d73382610b0d565b6106495760405162461bcd60e51b815260206004820152603160248201527f4552433732313a207472616e736665722063616c6c6572206973206e6f74206f60448201527f776e6572206e6f7220617070726f7665640000000000000000000000000000006064820152608401610466565b6105b8838383610c00565b6105b8838383604051806020016040528060008152506107d6565b6000818152600260205260408120546001600160a01b0316806103595760405162461bcd60e51b815260206004820152602960248201527f4552433732313a206f776e657220717565727920666f72206e6f6e657869737460448201527f656e7420746f6b656e00000000000000000000000000000000000000000000006064820152608401610466565b60006001600160a01b0382166107785760405162461bcd60e51b815260206004820152602a60248201527f4552433732313a2062616c616e636520717565727920666f7220746865207a6560448201527f726f2061646472657373000000000000000000000000000000000000000000006064820152608401610466565b506001600160a01b031660009081526003602052604090205490565b60008181526002602052604081205481906001600160a01b031615155b9392505050565b60606001805461036e90611908565b6107d2338383610dda565b5050565b6107e03383610b0d565b6108525760405162461bcd60e51b815260206004820152603160248201527f4552433732313a207472616e736665722063616c6c6572206973206e6f74206f60448201527f776e6572206e6f7220617070726f7665640000000000000000000000000000006064820152608401610466565b61085e84848484610ea9565b50505050565b6000818152600260205260409020546060906001600160a01b03166108f15760405162461bcd60e51b815260206004820152603160248201527f45524337323155524953746f726167653a2055524920717565727920666f722060448201527f6e6f6e6578697374656e7420746f6b656e0000000000000000000000000000006064820152608401610466565b6000828152600660205260408120805461090a90611908565b80601f016020809104026020016040519081016040528092919081815260200182805461093690611908565b80156109835780601f1061095857610100808354040283529160200191610983565b820191906000526020600020905b81548152906001019060200180831161096657829003601f168201915b5050505050905060006109a160408051602081019091526000815290565b90508051600014156109b4575092915050565b8151156109e65780826040516020016109ce929190611943565b60405160208183030381529060405292505050919050565b6109ef84610f27565b949350505050565b6000610a07600780546001019055565b6000610a1260075490565b6000868152600260205260409020549091506001600160a01b031615801590610a53576000610a408761066f565b9050610a4d818789610c00565b50610a88565b610a5d858761101c565b610a678685611036565b60408051602080820183528882526000858152600890915291909120905190555b5093949350505050565b6000818152600460205260409020805473ffffffffffffffffffffffffffffffffffffffff19166001600160a01b0384169081179091558190610ad48261066f565b6001600160a01b03167f8c5be1e5ebec7d5bd14f71427d1e84f3dd0314c0f7b2291e5b200ac8c7c3b92560405160405180910390a45050565b6000818152600260205260408120546001600160a01b0316610b865760405162461bcd60e51b815260206004820152602c60248201527f4552433732313a206f70657261746f7220717565727920666f72206e6f6e657860448201526b34b9ba32b73a103a37b5b2b760a11b6064820152608401610466565b6000610b918361066f565b9050806001600160a01b0316846001600160a01b03161480610bcc5750836001600160a01b0316610bc1846103f1565b6001600160a01b0316145b806109ef57506001600160a01b0380821660009081526005602090815260408083209388168352929052205460ff166109ef565b826001600160a01b0316610c138261066f565b6001600160a01b031614610c8f5760405162461bcd60e51b815260206004820152602560248201527f4552433732313a207472616e736665722066726f6d20696e636f72726563742060448201527f6f776e65720000000000000000000000000000000000000000000000000000006064820152608401610466565b6001600160a01b038216610d0a5760405162461bcd60e51b8152602060048201526024808201527f4552433732313a207472616e7366657220746f20746865207a65726f2061646460448201527f72657373000000000000000000000000000000000000000000000000000000006064820152608401610466565b610d15600082610a92565b6001600160a01b0383166000908152600360205260408120805460019290610d3e908490611988565b90915550506001600160a01b0382166000908152600360205260408120805460019290610d6c90849061199f565b9091555050600081815260026020526040808220805473ffffffffffffffffffffffffffffffffffffffff19166001600160a01b0386811691821790925591518493918716917fddf252ad1be2c89b69c2b068fc378daa952ba7f163c4a11628f55a4df523b3ef91a4505050565b816001600160a01b0316836001600160a01b03161415610e3c5760405162461bcd60e51b815260206004820152601960248201527f4552433732313a20617070726f766520746f2063616c6c6572000000000000006044820152606401610466565b6001600160a01b03838116600081815260056020908152604080832094871680845294825291829020805460ff191686151590811790915591519182527f17307eab39ab6107e8899845ad3d59bd9653f200f220920489ca2b5937696c31910160405180910390a3505050565b610eb4848484610c00565b610ec0848484846110df565b61085e5760405162461bcd60e51b815260206004820152603260248201527f4552433732313a207472616e7366657220746f206e6f6e20455243373231526560448201527131b2b4bb32b91034b6b83632b6b2b73a32b960711b6064820152608401610466565b6000818152600260205260409020546060906001600160a01b0316610fb45760405162461bcd60e51b815260206004820152602f60248201527f4552433732314d657461646174613a2055524920717565727920666f72206e6f60448201527f6e6578697374656e7420746f6b656e00000000000000000000000000000000006064820152608401610466565b6000610fcb60408051602081019091526000815290565b90506000815111610feb57604051806020016040528060008152506107b1565b80610ff584611237565b604051602001611006929190611943565b6040516020818303038152906040529392505050565b6107d2828260405180602001604052806000815250611369565b6000828152600260205260409020546001600160a01b03166110c05760405162461bcd60e51b815260206004820152602e60248201527f45524337323155524953746f726167653a2055524920736574206f66206e6f6e60448201527f6578697374656e7420746f6b656e0000000000000000000000000000000000006064820152608401610466565b600082815260066020908152604090912082516105b892840190611536565b60006001600160a01b0384163b1561122c57604051630a85bd0160e11b81526001600160a01b0385169063150b7a02906111239033908990889088906004016119b7565b602060405180830381600087803b15801561113d57600080fd5b505af192505050801561116d575060408051601f3d908101601f1916820190925261116a918101906119f3565b60015b611212573d80801561119b576040519150601f19603f3d011682016040523d82523d6000602084013e6111a0565b606091505b50805161120a5760405162461bcd60e51b815260206004820152603260248201527f4552433732313a207472616e7366657220746f206e6f6e20455243373231526560448201527131b2b4bb32b91034b6b83632b6b2b73a32b960711b6064820152608401610466565b805181602001fd5b6001600160e01b031916630a85bd0160e11b1490506109ef565b506001949350505050565b60608161127757505060408051808201909152600181527f3000000000000000000000000000000000000000000000000000000000000000602082015290565b8160005b81156112a1578061128b81611a10565b915061129a9050600a83611a41565b915061127b565b60008167ffffffffffffffff8111156112bc576112bc611762565b6040519080825280601f01601f1916602001820160405280156112e6576020820181803683370190505b5090505b84156109ef576112fb600183611988565b9150611308600a86611a55565b61131390603061199f565b60f81b81838151811061132857611328611a69565b60200101907effffffffffffffffffffffffffffffffffffffffffffffffffffffffffffff1916908160001a905350611362600a86611a41565b94506112ea565b61137383836113e7565b61138060008484846110df565b6105b85760405162461bcd60e51b815260206004820152603260248201527f4552433732313a207472616e7366657220746f206e6f6e20455243373231526560448201527131b2b4bb32b91034b6b83632b6b2b73a32b960711b6064820152608401610466565b6001600160a01b03821661143d5760405162461bcd60e51b815260206004820181905260248201527f4552433732313a206d696e7420746f20746865207a65726f20616464726573736044820152606401610466565b6000818152600260205260409020546001600160a01b0316156114a25760405162461bcd60e51b815260206004820152601c60248201527f4552433732313a20746f6b656e20616c7265616479206d696e746564000000006044820152606401610466565b6001600160a01b03821660009081526003602052604081208054600192906114cb90849061199f565b9091555050600081815260026020526040808220805473ffffffffffffffffffffffffffffffffffffffff19166001600160a01b03861690811790915590518392907fddf252ad1be2c89b69c2b068fc378daa952ba7f163c4a11628f55a4df523b3ef908290a45050565b82805461154290611908565b90600052602060002090601f01602090048101928261156457600085556115aa565b82601f1061157d57805160ff19168380011785556115aa565b828001600101855582156115aa579182015b828111156115aa57825182559160200191906001019061158f565b506115b69291506115ba565b5090565b5b808211156115b657600081556001016115bb565b6001600160e01b0319811681146115e557600080fd5b50565b6000602082840312156115fa57600080fd5b81356107b1816115cf565b60005b83811015611620578181015183820152602001611608565b8381111561085e5750506000910152565b60008151808452611649816020860160208601611605565b601f01601f19169290920160200192915050565b6020815260006107b16020830184611631565b60006020828403121561168257600080fd5b5035919050565b80356001600160a01b03811681146116a057600080fd5b919050565b600080604083850312156116b857600080fd5b6116c183611689565b946020939093013593505050565b6000806000606084860312156116e457600080fd5b6116ed84611689565b92506116fb60208501611689565b9150604084013590509250925092565b60006020828403121561171d57600080fd5b6107b182611689565b6000806040838503121561173957600080fd5b61174283611689565b91506020830135801515811461175757600080fd5b809150509250929050565b634e487b7160e01b600052604160045260246000fd5b600067ffffffffffffffff8084111561179357611793611762565b604051601f8501601f19908116603f011681019082821181831017156117bb576117bb611762565b816040528093508581528686860111156117d457600080fd5b858560208301376000602087830101525050509392505050565b6000806000806080858703121561180457600080fd5b61180d85611689565b935061181b60208601611689565b925060408501359150606085013567ffffffffffffffff81111561183e57600080fd5b8501601f8101871361184f57600080fd5b61185e87823560208401611778565b91505092959194509250565b60008060006060848603121561187f57600080fd5b8335925061188f60208501611689565b9150604084013567ffffffffffffffff8111156118ab57600080fd5b8401601f810186136118bc57600080fd5b6118cb86823560208401611778565b9150509250925092565b600080604083850312156118e857600080fd5b6118f183611689565b91506118ff60208401611689565b90509250929050565b600181811c9082168061191c57607f821691505b6020821081141561193d57634e487b7160e01b600052602260045260246000fd5b50919050565b60008351611955818460208801611605565b835190830190611969818360208801611605565b01949350505050565b634e487b7160e01b600052601160045260246000fd5b60008282101561199a5761199a611972565b500390565b600082198211156119b2576119b2611972565b500190565b60006001600160a01b038087168352808616602084015250836040830152608060608301526119e96080830184611631565b9695505050505050565b600060208284031215611a0557600080fd5b81516107b1816115cf565b6000600019821415611a2457611a24611972565b5060010190565b634e487b7160e01b600052601260045260246000fd5b600082611a5057611a50611a2b565b500490565b600082611a6457611a64611a2b565b500690565b634e487b7160e01b600052603260045260246000fdfea2646970667358221220d1161df19d5b88db51b7e5b7b4e4fb997f1cc9d635773c5c194cf0413dde400b64736f6c63430008080033",
  "linkReferences": {},
  "deployedLinkReferences": {}
}